ARM Linker, RVCT4.0 [Build 524] for uVision [Standard]

==============================================================================

Section Cross References

    main.o(.text) refers (Special) to _printf_d.o(.ARM.Collect$$_printf_percent$$00000009) for _printf_d
    main.o(.text) refers (Special) to _printf_dec.o(.text) for _printf_int_dec
    main.o(.text) refers (Special) to _printf_percent.o(.ARM.Collect$$_printf_percent$$00000000) for _printf_percent
    main.o(.text) refers to delay.o(.text) for delay_init
    main.o(.text) refers to sys.o(.text) for NVIC_Configuration
    main.o(.text) refers to usart.o(.text) for uart_init
    main.o(.text) refers to ds3231.o(.text) for DS3231_Init
    main.o(.text) refers to led.o(.text) for LED_Init
    main.o(.text) refers to noretval__2printf.o(.text) for __2printf
    main.o(.text) refers to usmart_config.o(.data) for usmart_dev
    main.o(.text) refers to ds3231.o(.data) for calendar
    system_stm32f10x.o(.text) refers to system_stm32f10x.o(.data) for SystemCoreClock
    myiic.o(.text) refers to stm32f10x_rcc.o(.text) for RCC_APB2PeriphClockCmd
    myiic.o(.text) refers to stm32f10x_gpio.o(.text) for GPIO_Init
    myiic.o(.text) refers to delay.o(.text) for delay_us
    ds3231.o(.text) refers to myiic.o(.text) for IIC_Start
    ds3231.o(.text) refers to delay.o(.text) for delay_us
    ds3231.o(.text) refers to ds3231.o(.data) for calendar
==============================================================================

Removing Unused input sections from the image.

    Removing core_cm3.o(.emb_text), (32 bytes).
    Removing usmart.o(.constdata), (77 bytes).

2 unused section(s) (total 109 bytes) removed from the image.

==============================================================================

Image Symbol Table

    Local Symbols

    Symbol Name                              Value     Ov Type        Size  Object(Section)

    ../../angel/boardlib.s                   0x00000000   Number         0  boardinit3.o ABSOLUTE
    ../../angel/boardlib.s                   0x00000000   Number         0  boardinit2.o ABSOLUTE
    ../../angel/boardlib.s                   0x00000000   Number         0  boardinit1.o ABSOLUTE
    ../../angel/boardlib.s                   0x00000000   Number         0  boardshut.o ABSOLUTE
    ../../angel/dczerorl2.s                  0x00000000   Number         0  __dczerorl2.o ABSOLUTE
    ../../angel/handlers.s                   0x00000000   Number         0  __scatter_zi.o ABSOLUTE
    ../../angel/kernel.s                     0x00000000   Number         0  rtexit.o ABSOLUTE
    ../../angel/kernel.s                     0x00000000   Number         0  rtexit2.o ABSOLUTE
    ../../angel/kernel.s                     0x00000000   Number         0  rtentry4.o ABSOLUTE
    ../../angel/kernel.s                     0x00000000   Number         0  rtentry.o ABSOLUTE
    ../../angel/kernel.s                     0x00000000   Number         0  rtentry2.o ABSOLUTE
    ../../angel/rt.s                         0x00000000   Number         0  rt_raise.o ABSOLUTE
    ../../angel/scatter.s                    0x00000000   Number         0  __scatter.o ABSOLUTE
    ../../angel/startup.s                    0x00000000   Number         0  __main.o ABSOLUTE
    ../../angel/sys.s                        0x00000000   Number         0  use_no_semi_2.o ABSOLUTE
    ../../angel/sys.s                        0x00000000   Number         0  use_no_semi.o ABSOLUTE
    ../../angel/sys.s                        0x00000000   Number         0  libspace.o ABSOLUTE
    ../../angel/sys.s                        0x00000000   Number         0  sys_stackheap_outer.o ABSOLUTE
    ../../angel/sysapp.c                     0x00000000   Number         0  sys_command.o ABSOLUTE
    ../../angel/sysapp.c                     0x00000000   Number         0  sys_wrch.o ABSOLUTE
    ../../armsys.c                           0x00000000   Number         0  _get_argv_nomalloc.o ABSOLUTE
    ../../armsys.c                           0x00000000   Number         0  argv_veneer.o ABSOLUTE
    ../../armsys.c                           0x00000000   Number         0  argv_veneer.o ABSOLUTE
    ../../armsys.c                           0x00000000   Number         0  no_argv.o ABSOLUTE
    ../../division_7m.s                      0x00000000   Number         0  rtudiv10.o ABSOLUTE
    ../../fpinit.s                           0x00000000   Number         0  fpinit.o ABSOLUTE
    ../../heapalloc.c                        0x00000000   Number         0  hrguard.o ABSOLUTE
    ../../heapaux.c                          0x00000000   Number         0  heapauxi.o ABSOLUTE
    ../../libinit.s                          0x00000000   Number         0  libinit2.o ABSOLUTE
    ../../libinit.s                          0x00000000   Number         0  libshutdown2.o ABSOLUTE
    ../../libinit.s                          0x00000000   Number         0  libshutdown.o ABSOLUTE
    ../../libinit.s                          0x00000000   Number         0  libinit.o ABSOLUTE
    ../../misc.s                             0x00000000   Number         0  printf_stubs.o ABSOLUTE
    ../../printf.c                           0x00000000   Number         0  _printf_hex_int_ptr.o ABSOLUTE
    ../../printf.c                           0x00000000   Number         0  _printf_char.o ABSOLUTE
    ../../printf.c                           0x00000000   Number         0  _printf_hex_ll_ptr.o ABSOLUTE
    ../../printf.c                           0x00000000   Number         0  _printf_char_common.o ABSOLUTE
    ../../printf.c                           0x00000000   Number         0  _printf_hex_int_ll_ptr.o ABSOLUTE
    ../../printf.c                           0x00000000   Number         0  _printf_intcommon.o ABSOLUTE
    ../../printf.c                           0x00000000   Number         0  __printf_flags.o ABSOLUTE
    ../../printf.c                           0x00000000   Number         0  __printf_ss.o ABSOLUTE
    ../../printf.c                           0x00000000   Number         0  __printf_flags_ss.o ABSOLUTE
    ../../printf.c                           0x00000000   Number         0  __printf_wp.o ABSOLUTE
    ../../printf.c                           0x00000000   Number         0  __printf_flags_wp.o ABSOLUTE
    ../../printf.c                           0x00000000   Number         0  __printf_ss_wp.o ABSOLUTE
    ../../printf.c                           0x00000000   Number         0  __printf_flags_ss_wp.o ABSOLUTE
    ../../printf.c                           0x00000000   Number         0  _printf_hex_int_ll.o ABSOLUTE
    ../../printf.c                           0x00000000   Number         0  _printf_hex_ptr.o ABSOLUTE
    ../../printf.c                           0x00000000   Number         0  __2printf.o ABSOLUTE
    ../../printf.c                           0x00000000   Number         0  noretval__2printf.o ABSOLUTE
    ../../printf.c                           0x00000000   Number         0  __printf.o ABSOLUTE
    ../../printf.c                           0x00000000   Number         0  _printf_pad.o ABSOLUTE
    ../../printf.c                           0x00000000   Number         0  _printf_str.o ABSOLUTE
    ../../printf.c                           0x00000000   Number         0  _printf_dec.o ABSOLUTE
    ../../printf.c                           0x00000000   Number         0  __printf_nopercent.o ABSOLUTE
    ../../printf.c                           0x00000000   Number         0  _printf_hex_ll.o ABSOLUTE
    ../../printf.c                           0x00000000   Number         0  _printf_hex_int.o ABSOLUTE
    ../../printf_percent.s                   0x00000000   Number         0  _printf_percent_end.o ABSOLUTE
    ../../printf_percent.s                   0x00000000   Number         0  _printf_c.o ABSOLUTE
    ../../printf_percent.s                   0x00000000   Number         0  _printf_s.o ABSOLUTE
    ../../printf_percent.s                   0x00000000   Number         0  _printf_x.o ABSOLUTE
    ../../printf_percent.s                   0x00000000   Number         0  _printf_d.o ABSOLUTE
    ../../printf_percent.s                   0x00000000   Number         0  _printf_u.o ABSOLUTE
    ../../printf_percent.s                   0x00000000   Number         0  _printf_percent.o ABSOLUTE
    ../../signal.c                           0x00000000   Number         0  defsig_fpe_inner.o ABSOLUTE
    ../../signal.c                           0x00000000   Number         0  defsig_abrt_inner.o ABSOLUTE
    ../../signal.c                           0x00000000   Number         0  defsig_general.o ABSOLUTE
    ../../signal.c                           0x00000000   Number         0  defsig_cppl_inner.o ABSOLUTE
    ../../signal.c                           0x00000000   Number         0  defsig_rtmem_outer.o ABSOLUTE
    ../../signal.c                           0x00000000   Number         0  defsig_rtmem_formal.o ABSOLUTE
    ../../signal.c                           0x00000000   Number         0  defsig_other.o ABSOLUTE
    ../../signal.c                           0x00000000   Number         0  defsig_exit.o ABSOLUTE
    ../../signal.c                           0x00000000   Number         0  defsig_segv_inner.o ABSOLUTE
    ../../signal.c                           0x00000000   Number         0  __raise.o ABSOLUTE
    ../../signal.c                           0x00000000   Number         0  defsig_rtmem_inner.o ABSOLUTE
    ../../signal.c                           0x00000000   Number         0  defsig_rtred_inner.o ABSOLUTE
    ../../signal.c                           0x00000000   Number         0  defsig_stak_inner.o ABSOLUTE
    ../../signal.c                           0x00000000   Number         0  defsig_pvfn_inner.o ABSOLUTE
    ../../signal.s                           0x00000000   Number         0  defsig.o ABSOLUTE
    ../../stdio.c                            0x00000000   Number         0  ferror_locked.o ABSOLUTE
    ../../stdio.c                            0x00000000   Number         0  ferror.o ABSOLUTE
    ../../stdlib.c                           0x00000000   Number         0  exit.o ABSOLUTE
    ..\CORE\core_cm3.c                       0x00000000   Number         0  core_cm3.o ABSOLUTE
    ..\CORE\startup_stm32f10x_hd.s           0x00000000   Number         0  startup_stm32f10x_hd.o ABSOLUTE
    ..\HARDWARE\DS3231\DS3231.c              0x00000000   Number         0  ds3231.o ABSOLUTE
    ..\HARDWARE\IIC\myiic.c                  0x00000000   Number         0  myiic.o ABSOLUTE
    ..\HARDWARE\LED\led.c                    0x00000000   Number         0  led.o ABSOLUTE
    ..\STM32F10x_FWLib\src\misc.c            0x00000000   Number         0  misc.o ABSOLUTE
    ..\STM32F10x_FWLib\src\stm32f10x_gpio.c  0x00000000   Number         0  stm32f10x_gpio.o ABSOLUTE
    ..\STM32F10x_FWLib\src\stm32f10x_rcc.c   0x00000000   Number         0  stm32f10x_rcc.o ABSOLUTE
    ..\STM32F10x_FWLib\src\stm32f10x_tim.c   0x00000000   Number         0  stm32f10x_tim.o ABSOLUTE
    ..\STM32F10x_FWLib\src\stm32f10x_usart.c 0x00000000   Number         0  stm32f10x_usart.o ABSOLUTE
    ..\SYSTEM\delay\delay.c                  0x00000000   Number         0  delay.o ABSOLUTE
    ..\SYSTEM\sys\sys.c                      0x00000000   Number         0  sys.o ABSOLUTE
    ..\SYSTEM\usart\usart.c                  0x00000000   Number         0  usart.o ABSOLUTE
    ..\USMART\usmart.c                       0x00000000   Number         0  usmart.o ABSOLUTE
    ..\USMART\usmart_config.c                0x00000000   Number         0  usmart_config.o ABSOLUTE
    ..\USMART\usmart_str.c                   0x00000000   Number         0  usmart_str.o ABSOLUTE
    ..\\CORE\\core_cm3.c                     0x00000000   Number         0  core_cm3.o ABSOLUTE
    dc.s                                     0x00000000   Number         0  dc.o ABSOLUTE
    main.c                                   0x00000000   Number         0  main.o ABSOLUTE
    stm32f10x_it.c                           0x00000000   Number         0  stm32f10x_it.o ABSOLUTE
    system_stm32f10x.c                       0x00000000   Number         0  system_stm32f10x.o ABSOLUTE
    RESET                                    0x08000000   Section      304  startup_stm32f10x_hd.o(RESET)
    !!!main                                  0x08000130   Section        8  __main.o(!!!main)
    !!!scatter                               0x08000138   Section       52  __scatter.o(!!!scatter)
    !!dczerorl2                              0x0800016c   Section       90  __dczerorl2.o(!!dczerorl2)
    !!handler_zi                             0x080001c8   Section       28  __scatter_zi.o(!!handler_zi)
    .ARM.Collect$$_printf_percent$$00000000  0x080001e4   Section        0  _printf_percent.o(.ARM.Collect$$_printf_percent$$00000000)
    .ARM.Collect$$_printf_percent$$00000009  0x080001e4   Section        6  _printf_d.o(.ARM.Collect$$_printf_percent$$00000009)
    .ARM.Collect$$_printf_percent$$0000000A  0x080001ea   Section        6  _printf_u.o(.ARM.Collect$$_printf_percent$$0000000A)
    .ARM.Collect$$_printf_percent$$0000000C  0x080001f0   Section        6  _printf_x.o(.ARM.Collect$$_printf_percent$$0000000C)
    .ARM.Collect$$_printf_percent$$00000013  0x080001f6   Section        6  _printf_c.o(.ARM.Collect$$_printf_percent$$00000013)
    .ARM.Collect$$_printf_percent$$00000014  0x080001fc   Section        6  _printf_s.o(.ARM.Collect$$_printf_percent$$00000014)
    .ARM.Collect$$_printf_percent$$00000017  0x08000202   Section        4  _printf_percent_end.o(.ARM.Collect$$_printf_percent$$00000017)
    .ARM.Collect$$libinit$$00000000          0x08000206   Section        6  libinit.o(.ARM.Collect$$libinit$$00000000)
    .ARM.Collect$$libinit$$00000006          0x0800020c   Section        0  libinit2.o(.ARM.Collect$$libinit$$00000006)
    .ARM.Collect$$libinit$$00000008          0x0800020c   Section        0  libinit2.o(.ARM.Collect$$libinit$$00000008)
    .ARM.Collect$$libinit$$0000000A          0x0800020c   Section        0  libinit2.o(.ARM.Collect$$libinit$$0000000A)
    .ARM.Collect$$libinit$$0000000D          0x0800020c   Section        0  libinit2.o(.ARM.Collect$$libinit$$0000000D)
    .ARM.Collect$$libinit$$0000000F          0x0800020c   Section        0  libinit2.o(.ARM.Collect$$libinit$$0000000F)
    .ARM.Collect$$libinit$$00000011          0x0800020c   Section        0  libinit2.o(.ARM.Collect$$libinit$$00000011)
    .ARM.Collect$$libinit$$00000013          0x0800020c   Section        0  libinit2.o(.ARM.Collect$$libinit$$00000013)
    .ARM.Collect$$libinit$$00000015          0x0800020c   Section        0  libinit2.o(.ARM.Collect$$libinit$$00000015)
    .ARM.Collect$$libinit$$00000017          0x0800020c   Section        0  libinit2.o(.ARM.Collect$$libinit$$00000017)
    .ARM.Collect$$libinit$$00000019          0x0800020c   Section        0  libinit2.o(.ARM.Collect$$libinit$$00000019)
    .ARM.Collect$$libinit$$0000001B          0x0800020c   Section        0  libinit2.o(.ARM.Collect$$libinit$$0000001B)
    .ARM.Collect$$libinit$$0000001D          0x0800020c   Section        0  libinit2.o(.ARM.Collect$$libinit$$0000001D)
    .ARM.Collect$$libinit$$0000001F          0x0800020c   Section        0  libinit2.o(.ARM.Collect$$libinit$$0000001F)
    .ARM.Collect$$libinit$$00000021          0x0800020c   Section        0  libinit2.o(.ARM.Collect$$libinit$$00000021)
    .ARM.Collect$$libinit$$00000028          0x0800020c   Section        0  libinit2.o(.ARM.Collect$$libinit$$00000028)
    .ARM.Collect$$libinit$$0000002A          0x0800020c   Section        0  libinit2.o(.ARM.Collect$$libinit$$0000002A)
    .ARM.Collect$$libinit$$0000002C          0x0800020c   Section        0  libinit2.o(.ARM.Collect$$libinit$$0000002C)
    .ARM.Collect$$libinit$$0000002E          0x0800020c   Section        0  libinit2.o(.ARM.Collect$$libinit$$0000002E)
    .ARM.Collect$$libinit$$0000002F          0x0800020c   Section        2  libinit2.o(.ARM.Collect$$libinit$$0000002F)
    .ARM.Collect$$libshutdown$$00000000      0x0800020e   Section        2  libshutdown.o(.ARM.Collect$$libshutdown$$00000000)
    .ARM.Collect$$libshutdown$$00000003      0x08000210   Section        0  libshutdown2.o(.ARM.Collect$$libshutdown$$00000003)
    .ARM.Collect$$libshutdown$$00000006      0x08000210   Section        0  libshutdown2.o(.ARM.Collect$$libshutdown$$00000006)
    .ARM.Collect$$libshutdown$$00000009      0x08000210   Section        0  libshutdown2.o(.ARM.Collect$$libshutdown$$00000009)
    .ARM.Collect$$libshutdown$$0000000B      0x08000210   Section        0  libshutdown2.o(.ARM.Collect$$libshutdown$$0000000B)
    .ARM.Collect$$libshutdown$$0000000E      0x08000210   Section        0  libshutdown2.o(.ARM.Collect$$libshutdown$$0000000E)
    .ARM.Collect$$libshutdown$$0000000F      0x08000210   Section        2  libshutdown2.o(.ARM.Collect$$libshutdown$$0000000F)
    .ARM.Collect$$rtentry$$00000000          0x08000212   Section        0  rtentry.o(.ARM.Collect$$rtentry$$00000000)
    .ARM.Collect$$rtentry$$00000002          0x08000212   Section        0  rtentry2.o(.ARM.Collect$$rtentry$$00000002)
    .ARM.Collect$$rtentry$$00000004          0x08000212   Section        6  rtentry4.o(.ARM.Collect$$rtentry$$00000004)
    .ARM.Collect$$rtentry$$00000009          0x08000218   Section        0  rtentry2.o(.ARM.Collect$$rtentry$$00000009)
    .ARM.Collect$$rtentry$$0000000A          0x08000218   Section        4  rtentry2.o(.ARM.Collect$$rtentry$$0000000A)
    .ARM.Collect$$rtentry$$0000000C          0x0800021c   Section        0  rtentry2.o(.ARM.Collect$$rtentry$$0000000C)
    .ARM.Collect$$rtentry$$0000000D          0x0800021c   Section        8  rtentry2.o(.ARM.Collect$$rtentry$$0000000D)
    .ARM.Collect$$rtexit$$00000000           0x08000224   Section        0  rtexit.o(.ARM.Collect$$rtexit$$00000000)
    .ARM.Collect$$rtexit$$00000002           0x08000224   Section        0  rtexit2.o(.ARM.Collect$$rtexit$$00000002)
    .ARM.Collect$$rtexit$$00000003           0x08000224   Section        4  rtexit2.o(.ARM.Collect$$rtexit$$00000003)
    .ARM.Collect$$rtexit$$00000004           0x08000228   Section        4  rtexit2.o(.ARM.Collect$$rtexit$$00000004)
    .text                                    0x0800022c   Section      176  main.o(.text)
    .text                                    0x080002dc   Section       26  stm32f10x_it.o(.text)
    .text                                    0x080002f8   Section      456  system_stm32f10x.o(.text)
    SetSysClockTo72                          0x080002f9   Thumb Code   192  system_stm32f10x.o(.text)
    SetSysClock                              0x080003b9   Thumb Code     8  system_stm32f10x.o(.text)
    .text                                    0x080004c0   Section      716  myiic.o(.text)
    .text                                    0x0800078c   Section      572  ds3231.o(.text)
    .text                                    0x080009c8   Section       76  led.o(.text)
    .text                                    0x08000a14   Section      192  delay.o(.text)
    .text                                    0x08000ad4   Section       12  sys.o(.text)
    .text                                    0x08000ae0   Section      328  usart.o(.text)
    .text                                    0x08000c28   Section       64  startup_stm32f10x_hd.o(.text)
    .text                                    0x08000c68   Section      224  misc.o(.text)
    .text                                    0x08000d48   Section      840  stm32f10x_gpio.o(.text)
    .text                                    0x08001090   Section      912  stm32f10x_rcc.o(.text)
    .text                                    0x08001420   Section     1032  stm32f10x_usart.o(.text)
    .text                                    0x08001828   Section     3426  stm32f10x_tim.o(.text)
    TI4_Config                               0x08001cb1   Thumb Code   114  stm32f10x_tim.o(.text)
    TI3_Config                               0x08001d35   Thumb Code   110  stm32f10x_tim.o(.text)
    TI2_Config                               0x08001db9   Thumb Code   114  stm32f10x_tim.o(.text)
    TI1_Config                               0x08001e3d   Thumb Code   102  stm32f10x_tim.o(.text)
    .text                                    0x0800258c   Section     3100  usmart.o(.text)
    .text                                    0x080031a8   Section     1468  usmart_str.o(.text)
    .text                                    0x08003764   Section        2  use_no_semi_2.o(.text)
    .text                                    0x08003768   Section       32  noretval__2printf.o(.text)
    .text                                    0x08003788   Section       76  _printf_pad.o(.text)
    .text                                    0x080037d4   Section       82  _printf_str.o(.text)
    .text                                    0x08003828   Section      112  _printf_dec.o(.text)
    .text                                    0x08003898   Section       92  _printf_hex_int.o(.text)
    .text                                    0x080038f4   Section      416  __printf_flags_ss_wp.o(.text)
    .text                                    0x08003a94   Section        6  heapauxi.o(.text)
    .text                                    0x08003a9a   Section        2  use_no_semi.o(.text)
    .text                                    0x08003a9c   Section      174  _printf_intcommon.o(.text)
    .text                                    0x08003b4c   Section       48  _printf_char_common.o(.text)
    _printf_input_char                       0x08003b4d   Thumb Code    10  _printf_char_common.o(.text)
    .text                                    0x08003b7c   Section       44  _printf_char.o(.text)
    .text                                    0x08003ba8   Section       16  rtudiv10.o(.text)
    .text                                    0x08003bb8   Section       74  sys_stackheap_outer.o(.text)
    .text                                    0x08003c02   Section       12  exit.o(.text)
    .text                                    0x08003c10   Section        8  libspace.o(.text)
    .constdata                               0x08003c18   Section       40  _printf_hex_int.o(.constdata)
    uc_hextab                                0x08003c18   Data          20  _printf_hex_int.o(.constdata)
    lc_hextab                                0x08003c2c   Data          20  _printf_hex_int.o(.constdata)
    .constdata                               0x08003c40   Section       17  __printf_flags_ss_wp.o(.constdata)
    maptable                                 0x08003c40   Data          17  __printf_flags_ss_wp.o(.constdata)
    .conststring                             0x08003c51   Section       31  usmart.o(.conststring)
    .conststring                             0x08003c70   Section      158  usmart_config.o(.conststring)
    .data                                    0x20000000   Section       20  system_stm32f10x.o(.data)
    .data                                    0x20000014   Section        7  ds3231.o(.data)
    .data                                    0x2000001c   Section        4  delay.o(.data)
    fac_us                                   0x2000001c   Data           1  delay.o(.data)
    fac_ms                                   0x2000001e   Data           2  delay.o(.data)
    .data                                    0x20000020   Section        8  usart.o(.data)
    .data                                    0x20000028   Section       20  stm32f10x_rcc.o(.data)
    APBAHBPrescTable                         0x20000028   Data          16  stm32f10x_rcc.o(.data)
    ADCPrescTable                            0x20000038   Data           4  stm32f10x_rcc.o(.data)
    .data                                    0x2000003c   Section       28  usmart.o(.data)
    .data                                    0x20000058   Section      284  usmart_config.o(.data)
    .bss                                     0x20000174   Section      200  usart.o(.bss)
    .bss                                     0x2000023c   Section       96  libspace.o(.bss)
    HEAP                                     0x200002a0   Section      512  startup_stm32f10x_hd.o(HEAP)
    Heap_Mem                                 0x200002a0   Data         512  startup_stm32f10x_hd.o(HEAP)
    STACK                                    0x200004a0   Section     1024  startup_stm32f10x_hd.o(STACK)
    Stack_Mem                                0x200004a0   Data        1024  startup_stm32f10x_hd.o(STACK)
    __initial_sp                             0x200008a0   Data           0  startup_stm32f10x_hd.o(STACK)

    Global Symbols

    Symbol Name                              Value     Ov Type        Size  Object(Section)

    BuildAttributes$$THM_ISAv4$P$D$K$B$S$PE$A:L22UL41UL21$X:L11$S22US41US21$IEEE1$IW$USESV6$~STKCKD$USESV7$~SHL$OSPACE$ROPI$EBA8$UX$STANDARDLIB$REQ8$PRES8$EABIv2 0x00000000   Number         0  anon$$obj.o ABSOLUTE
    __ARM_use_no_argv                        0x00000000   Number         0  main.o ABSOLUTE
    _printf_flags                            0x00000000   Number         0  printf_stubs.o ABSOLUTE
    _printf_return_value                     0x00000000   Number         0  printf_stubs.o ABSOLUTE
    _printf_sizespec                         0x00000000   Number         0  printf_stubs.o ABSOLUTE
    _printf_widthprec                        0x00000000   Number         0  printf_stubs.o ABSOLUTE
    __ARM_exceptions_init                     - Undefined Weak Reference
    __alloca_initialize                       - Undefined Weak Reference
    __cpp_initialize__aeabi_                  - Undefined Weak Reference
    __cxa_finalize                            - Undefined Weak Reference
    __rt_locale                               - Undefined Weak Reference
    __sigvec_lookup                           - Undefined Weak Reference
    _atexit_init                              - Undefined Weak Reference
    _call_atexit_fns                          - Undefined Weak Reference
    _clock_init                               - Undefined Weak Reference
    _fp_trap_init                             - Undefined Weak Reference
    _fp_trap_shutdown                         - Undefined Weak Reference
    _get_lc_collate                           - Undefined Weak Reference
    _get_lc_ctype                             - Undefined Weak Reference
    _get_lc_monetary                          - Undefined Weak Reference
    _get_lc_numeric                           - Undefined Weak Reference
    _get_lc_time                              - Undefined Weak Reference
    _getenv_init                              - Undefined Weak Reference
    _handle_redirection                       - Undefined Weak Reference
    _init_alloc                               - Undefined Weak Reference
    _init_user_alloc                          - Undefined Weak Reference
    _initio                                   - Undefined Weak Reference
    _mutex_acquire                            - Undefined Weak Reference
    _mutex_release                            - Undefined Weak Reference
    _printf_mbtowc                            - Undefined Weak Reference
    _printf_truncate_signed                   - Undefined Weak Reference
    _printf_truncate_unsigned                 - Undefined Weak Reference
    _rand_init                                - Undefined Weak Reference
    _signal_finish                            - Undefined Weak Reference
    _signal_init                              - Undefined Weak Reference
    _terminate_alloc                          - Undefined Weak Reference
    _terminate_user_alloc                     - Undefined Weak Reference
    _terminateio                              - Undefined Weak Reference
    __Vectors_Size                           0x00000130   Number         0  startup_stm32f10x_hd.o ABSOLUTE
    __Vectors                                0x08000000   Data           4  startup_stm32f10x_hd.o(RESET)
    __Vectors_End                            0x08000130   Data           0  startup_stm32f10x_hd.o(RESET)
    __main                                   0x08000131   Thumb Code     8  __main.o(!!!main)
    __scatterload                            0x08000139   Thumb Code     0  __scatter.o(!!!scatter)
    __scatterload_rt2                        0x08000139   Thumb Code    44  __scatter.o(!!!scatter)
    __scatterload_rt2_thumb_only             0x08000139   Thumb Code     0  __scatter.o(!!!scatter)
    __scatterload_null                       0x08000147   Thumb Code     0  __scatter.o(!!!scatter)
    __decompress                             0x0800016d   Thumb Code    90  __dczerorl2.o(!!dczerorl2)
    __decompress1                            0x0800016d   Thumb Code     0  __dczerorl2.o(!!dczerorl2)
    __scatterload_zeroinit                   0x080001c9   Thumb Code    28  __scatter_zi.o(!!handler_zi)
    _printf_d                                0x080001e5   Thumb Code     0  _printf_d.o(.ARM.Collect$$_printf_percent$$00000009)
    _printf_percent                          0x080001e5   Thumb Code     0  _printf_percent.o(.ARM.Collect$$_printf_percent$$00000000)
    _printf_u                                0x080001eb   Thumb Code     0  _printf_u.o(.ARM.Collect$$_printf_percent$$0000000A)
    _printf_x                                0x080001f1   Thumb Code     0  _printf_x.o(.ARM.Collect$$_printf_percent$$0000000C)
    _printf_c                                0x080001f7   Thumb Code     0  _printf_c.o(.ARM.Collect$$_printf_percent$$00000013)
    _printf_s                                0x080001fd   Thumb Code     0  _printf_s.o(.ARM.Collect$$_printf_percent$$00000014)
    _printf_percent_end                      0x08000203   Thumb Code     0  _printf_percent_end.o(.ARM.Collect$$_printf_percent$$00000017)
    __rt_lib_init                            0x08000207   Thumb Code     0  libinit.o(.ARM.Collect$$libinit$$00000000)
    __rt_lib_init_alloca_1                   0x0800020d   Thumb Code     0  libinit2.o(.ARM.Collect$$libinit$$0000002A)
    __rt_lib_init_argv_1                     0x0800020d   Thumb Code     0  libinit2.o(.ARM.Collect$$libinit$$00000028)
    __rt_lib_init_atexit_1                   0x0800020d   Thumb Code     0  libinit2.o(.ARM.Collect$$libinit$$00000017)
    __rt_lib_init_clock_1                    0x0800020d   Thumb Code     0  libinit2.o(.ARM.Collect$$libinit$$0000001D)
    __rt_lib_init_cpp_1                      0x0800020d   Thumb Code     0  libinit2.o(.ARM.Collect$$libinit$$0000002E)
    __rt_lib_init_exceptions_1               0x0800020d   Thumb Code     0  libinit2.o(.ARM.Collect$$libinit$$0000002C)
    __rt_lib_init_fp_trap_1                  0x0800020d   Thumb Code     0  libinit2.o(.ARM.Collect$$libinit$$0000001B)
    __rt_lib_init_getenv_1                   0x0800020d   Thumb Code     0  libinit2.o(.ARM.Collect$$libinit$$0000001F)
    __rt_lib_init_heap_1                     0x0800020d   Thumb Code     0  libinit2.o(.ARM.Collect$$libinit$$00000006)
    __rt_lib_init_lc_collate_1               0x0800020d   Thumb Code     0  libinit2.o(.ARM.Collect$$libinit$$0000000D)
    __rt_lib_init_lc_ctype_1                 0x0800020d   Thumb Code     0  libinit2.o(.ARM.Collect$$libinit$$0000000F)
    __rt_lib_init_lc_monetary_1              0x0800020d   Thumb Code     0  libinit2.o(.ARM.Collect$$libinit$$00000011)
    __rt_lib_init_lc_numeric_1               0x0800020d   Thumb Code     0  libinit2.o(.ARM.Collect$$libinit$$00000013)
    __rt_lib_init_lc_time_1                  0x0800020d   Thumb Code     0  libinit2.o(.ARM.Collect$$libinit$$00000015)
    __rt_lib_init_rand_1                     0x0800020d   Thumb Code     0  libinit2.o(.ARM.Collect$$libinit$$0000000A)
    __rt_lib_init_return                     0x0800020d   Thumb Code     0  libinit2.o(.ARM.Collect$$libinit$$0000002F)
    __rt_lib_init_signal_1                   0x0800020d   Thumb Code     0  libinit2.o(.ARM.Collect$$libinit$$00000019)
    __rt_lib_init_stdio_1                    0x0800020d   Thumb Code     0  libinit2.o(.ARM.Collect$$libinit$$00000021)
    __rt_lib_init_user_alloc_1               0x0800020d   Thumb Code     0  libinit2.o(.ARM.Collect$$libinit$$00000008)
    __rt_lib_shutdown                        0x0800020f   Thumb Code     0  libshutdown.o(.ARM.Collect$$libshutdown$$00000000)
    __rt_lib_shutdown_fp_trap_1              0x08000211   Thumb Code     0  libshutdown2.o(.ARM.Collect$$libshutdown$$00000006)
    __rt_lib_shutdown_heap_1                 0x08000211   Thumb Code     0  libshutdown2.o(.ARM.Collect$$libshutdown$$0000000E)
    __rt_lib_shutdown_return                 0x08000211   Thumb Code     0  libshutdown2.o(.ARM.Collect$$libshutdown$$0000000F)
    __rt_lib_shutdown_signal_1               0x08000211   Thumb Code     0  libshutdown2.o(.ARM.Collect$$libshutdown$$00000009)
    __rt_lib_shutdown_stdio_1                0x08000211   Thumb Code     0  libshutdown2.o(.ARM.Collect$$libshutdown$$00000003)
    __rt_lib_shutdown_user_alloc_1           0x08000211   Thumb Code     0  libshutdown2.o(.ARM.Collect$$libshutdown$$0000000B)
    __rt_entry                               0x08000213   Thumb Code     0  rtentry.o(.ARM.Collect$$rtentry$$00000000)
    __rt_entry_presh_1                       0x08000213   Thumb Code     0  rtentry2.o(.ARM.Collect$$rtentry$$00000002)
    __rt_entry_sh                            0x08000213   Thumb Code     0  rtentry4.o(.ARM.Collect$$rtentry$$00000004)
    __rt_entry_li                            0x08000219   Thumb Code     0  rtentry2.o(.ARM.Collect$$rtentry$$0000000A)
    __rt_entry_postsh_1                      0x08000219   Thumb Code     0  rtentry2.o(.ARM.Collect$$rtentry$$00000009)
    __rt_entry_main                          0x0800021d   Thumb Code     0  rtentry2.o(.ARM.Collect$$rtentry$$0000000D)
    __rt_entry_postli_1                      0x0800021d   Thumb Code     0  rtentry2.o(.ARM.Collect$$rtentry$$0000000C)
    __rt_exit                                0x08000225   Thumb Code     0  rtexit.o(.ARM.Collect$$rtexit$$00000000)
    __rt_exit_ls                             0x08000225   Thumb Code     0  rtexit2.o(.ARM.Collect$$rtexit$$00000003)
    __rt_exit_prels_1                        0x08000225   Thumb Code     0  rtexit2.o(.ARM.Collect$$rtexit$$00000002)
    __rt_exit_exit                           0x08000229   Thumb Code     0  rtexit2.o(.ARM.Collect$$rtexit$$00000004)
    main                                     0x0800022d   Thumb Code   124  main.o(.text)
    NMI_Handler                              0x080002dd   Thumb Code     2  stm32f10x_it.o(.text)
    HardFault_Handler                        0x080002df   Thumb Code     4  stm32f10x_it.o(.text)
    MemManage_Handler                        0x080002e3   Thumb Code     4  stm32f10x_it.o(.text)
    BusFault_Handler                         0x080002e7   Thumb Code     4  stm32f10x_it.o(.text)
    UsageFault_Handler                       0x080002eb   Thumb Code     4  stm32f10x_it.o(.text)
    SVC_Handler                              0x080002ef   Thumb Code     2  stm32f10x_it.o(.text)
    DebugMon_Handler                         0x080002f1   Thumb Code     2  stm32f10x_it.o(.text)
    PendSV_Handler                           0x080002f3   Thumb Code     2  stm32f10x_it.o(.text)
    SysTick_Handler                          0x080002f5   Thumb Code     2  stm32f10x_it.o(.text)
    SystemInit                               0x080003c1   Thumb Code    78  system_stm32f10x.o(.text)
    SystemCoreClockUpdate                    0x0800040f   Thumb Code   142  system_stm32f10x.o(.text)
    IIC_Init                                 0x080004c1   Thumb Code    50  myiic.o(.text)
    IIC_Start                                0x080004f3   Thumb Code    88  myiic.o(.text)
    IIC_Stop                                 0x0800054b   Thumb Code    84  myiic.o(.text)
    IIC_Wait_Ack                             0x0800059f   Thumb Code    94  myiic.o(.text)
    IIC_Ack                                  0x080005fd   Thumb Code    80  myiic.o(.text)
    IIC_NAck                                 0x0800064d   Thumb Code    80  myiic.o(.text)
    IIC_Send_Byte                            0x0800069d   Thumb Code   114  myiic.o(.text)
    IIC_Read_Byte                            0x0800070f   Thumb Code   108  myiic.o(.text)
    BCD2HEX                                  0x0800078d   Thumb Code    22  ds3231.o(.text)
    B_BCD                                    0x080007a3   Thumb Code    32  ds3231.o(.text)
    I2cByteWrite                             0x080007c3   Thumb Code    70  ds3231.o(.text)
    I2cByteRead                              0x08000809   Thumb Code    78  ds3231.o(.text)
    DS3231_Init                              0x08000857   Thumb Code    36  ds3231.o(.text)
    DS3231_Get                               0x0800087b   Thumb Code    64  ds3231.o(.text)
    DS3231_Set                               0x080008bb   Thumb Code   132  ds3231.o(.text)
    get_show_time                            0x0800093f   Thumb Code   134  ds3231.o(.text)
    LED_Init                                 0x080009c9   Thumb Code    68  led.o(.text)
    delay_init                               0x08000a15   Thumb Code    42  delay.o(.text)
    delay_us                                 0x08000a3f   Thumb Code    68  delay.o(.text)
    delay_ms                                 0x08000a83   Thumb Code    70  delay.o(.text)
    NVIC_Configuration                       0x08000ad5   Thumb Code    12  sys.o(.text)
    _sys_exit                                0x08000ae1   Thumb Code     6  usart.o(.text)
    fputc                                    0x08000ae7   Thumb Code    22  usart.o(.text)
    uart_init                                0x08000afd   Thumb Code   158  usart.o(.text)
    USART1_IRQHandler                        0x08000b9b   Thumb Code   124  usart.o(.text)
    Reset_Handler                            0x08000c29   Thumb Code     8  startup_stm32f10x_hd.o(.text)
    ADC1_2_IRQHandler                        0x08000c43   Thumb Code     0  startup_stm32f10x_hd.o(.text)
    ADC3_IRQHandler                          0x08000c43   Thumb Code     0  startup_stm32f10x_hd.o(.text)
    CAN1_RX1_IRQHandler                      0x08000c43   Thumb Code     0  startup_stm32f10x_hd.o(.text)
    CAN1_SCE_IRQHandler                      0x08000c43   Thumb Code     0  startup_stm32f10x_hd.o(.text)
    DMA1_Channel1_IRQHandler                 0x08000c43   Thumb Code     0  startup_stm32f10x_hd.o(.text)
    DMA1_Channel2_IRQHandler                 0x08000c43   Thumb Code     0  startup_stm32f10x_hd.o(.text)
    DMA1_Channel3_IRQHandler                 0x08000c43   Thumb Code     0  startup_stm32f10x_hd.o(.text)
    DMA1_Channel4_IRQHandler                 0x08000c43   Thumb Code     0  startup_stm32f10x_hd.o(.text)
    DMA1_Channel5_IRQHandler                 0x08000c43   Thumb Code     0  startup_stm32f10x_hd.o(.text)
    DMA1_Channel6_IRQHandler                 0x08000c43   Thumb Code     0  startup_stm32f10x_hd.o(.text)
    DMA1_Channel7_IRQHandler                 0x08000c43   Thumb Code     0  startup_stm32f10x_hd.o(.text)
    DMA2_Channel1_IRQHandler                 0x08000c43   Thumb Code     0  startup_stm32f10x_hd.o(.text)
    DMA2_Channel2_IRQHandler                 0x08000c43   Thumb Code     0  startup_stm32f10x_hd.o(.text)
    DMA2_Channel3_IRQHandler                 0x08000c43   Thumb Code     0  startup_stm32f10x_hd.o(.text)
    DMA2_Channel4_5_IRQHandler               0x08000c43   Thumb Code     0  startup_stm32f10x_hd.o(.text)
    EXTI0_IRQHandler                         0x08000c43   Thumb Code     0  startup_stm32f10x_hd.o(.text)
    EXTI15_10_IRQHandler                     0x08000c43   Thumb Code     0  startup_stm32f10x_hd.o(.text)
    EXTI1_IRQHandler                         0x08000c43   Thumb Code     0  startup_stm32f10x_hd.o(.text)
    EXTI2_IRQHandler                         0x08000c43   Thumb Code     0  startup_stm32f10x_hd.o(.text)
    EXTI3_IRQHandler                         0x08000c43   Thumb Code     0  startup_stm32f10x_hd.o(.text)
    EXTI4_IRQHandler                         0x08000c43   Thumb Code     0  startup_stm32f10x_hd.o(.text)
    EXTI9_5_IRQHandler                       0x08000c43   Thumb Code     0  startup_stm32f10x_hd.o(.text)
    FLASH_IRQHandler                         0x08000c43   Thumb Code     0  startup_stm32f10x_hd.o(.text)
    FSMC_IRQHandler                          0x08000c43   Thumb Code     0  startup_stm32f10x_hd.o(.text)
    I2C1_ER_IRQHandler                       0x08000c43   Thumb Code     0  startup_stm32f10x_hd.o(.text)
    I2C1_EV_IRQHandler                       0x08000c43   Thumb Code     0  startup_stm32f10x_hd.o(.text)
    I2C2_ER_IRQHandler                       0x08000c43   Thumb Code     0  startup_stm32f10x_hd.o(.text)
    I2C2_EV_IRQHandler                       0x08000c43   Thumb Code     0  startup_stm32f10x_hd.o(.text)
    PVD_IRQHandler                           0x08000c43   Thumb Code     0  startup_stm32f10x_hd.o(.text)
    RCC_IRQHandler                           0x08000c43   Thumb Code     0  startup_stm32f10x_hd.o(.text)
    RTCAlarm_IRQHandler                      0x08000c43   Thumb Code     0  startup_stm32f10x_hd.o(.text)
    RTC_IRQHandler                           0x08000c43   Thumb Code     0  startup_stm32f10x_hd.o(.text)
    SDIO_IRQHandler                          0x08000c43   Thumb Code     0  startup_stm32f10x_hd.o(.text)
    SPI1_IRQHandler                          0x08000c43   Thumb Code     0  startup_stm32f10x_hd.o(.text)
    SPI2_IRQHandler                          0x08000c43   Thumb Code     0  startup_stm32f10x_hd.o(.text)
    SPI3_IRQHandler                          0x08000c43   Thumb Code     0  startup_stm32f10x_hd.o(.text)
    TAMPER_IRQHandler                        0x08000c43   Thumb Code     0  startup_stm32f10x_hd.o(.text)
    TIM1_BRK_IRQHandler                      0x08000c43   Thumb Code     0  startup_stm32f10x_hd.o(.text)
    TIM1_CC_IRQHandler                       0x08000c43   Thumb Code     0  startup_stm32f10x_hd.o(.text)
    TIM1_TRG_COM_IRQHandler                  0x08000c43   Thumb Code     0  startup_stm32f10x_hd.o(.text)
    TIM1_UP_IRQHandler                       0x08000c43   Thumb Code     0  startup_stm32f10x_hd.o(.text)
    TIM3_IRQHandler                          0x08000c43   Thumb Code     0  startup_stm32f10x_hd.o(.text)
    TIM4_IRQHandler                          0x08000c43   Thumb Code     0  startup_stm32f10x_hd.o(.text)
    TIM5_IRQHandler                          0x08000c43   Thumb Code     0  startup_stm32f10x_hd.o(.text)
    TIM6_IRQHandler                          0x08000c43   Thumb Code     0  startup_stm32f10x_hd.o(.text)
    TIM7_IRQHandler                          0x08000c43   Thumb Code     0  startup_stm32f10x_hd.o(.text)
    TIM8_BRK_IRQHandler                      0x08000c43   Thumb Code     0  startup_stm32f10x_hd.o(.text)
    TIM8_CC_IRQHandler                       0x08000c43   Thumb Code     0  startup_stm32f10x_hd.o(.text)
    TIM8_TRG_COM_IRQHandler                  0x08000c43   Thumb Code     0  startup_stm32f10x_hd.o(.text)
    TIM8_UP_IRQHandler                       0x08000c43   Thumb Code     0  startup_stm32f10x_hd.o(.text)
    UART4_IRQHandler                         0x08000c43   Thumb Code     0  startup_stm32f10x_hd.o(.text)
    UART5_IRQHandler                         0x08000c43   Thumb Code     0  startup_stm32f10x_hd.o(.text)
    USART2_IRQHandler                        0x08000c43   Thumb Code     0  startup_stm32f10x_hd.o(.text)
    USART3_IRQHandler                        0x08000c43   Thumb Code     0  startup_stm32f10x_hd.o(.text)
    USBWakeUp_IRQHandler                     0x08000c43   Thumb Code     0  startup_stm32f10x_hd.o(.text)
    USB_HP_CAN1_TX_IRQHandler                0x08000c43   Thumb Code     0  startup_stm32f10x_hd.o(.text)
    USB_LP_CAN1_RX0_IRQHandler               0x08000c43   Thumb Code     0  startup_stm32f10x_hd.o(.text)
    WWDG_IRQHandler                          0x08000c43   Thumb Code     0  startup_stm32f10x_hd.o(.text)
    __user_initial_stackheap                 0x08000c45   Thumb Code     0  startup_stm32f10x_hd.o(.text)
    NVIC_PriorityGroupConfig                 0x08000c69   Thumb Code    10  misc.o(.text)
    NVIC_Init                                0x08000c73   Thumb Code   102  misc.o(.text)
    NVIC_SetVectorTable                      0x08000cd9   Thumb Code    14  misc.o(.text)
    NVIC_SystemLPConfig                      0x08000ce7   Thumb Code    38  misc.o(.text)
    SysTick_CLKSourceConfig                  0x08000d0d   Thumb Code    40  misc.o(.text)
    GPIO_DeInit                              0x08000d49   Thumb Code   172  stm32f10x_gpio.o(.text)
    GPIO_AFIODeInit                          0x08000df5   Thumb Code    20  stm32f10x_gpio.o(.text)
    GPIO_Init                                0x08000e09   Thumb Code   268  stm32f10x_gpio.o(.text)
    GPIO_StructInit                          0x08000f15   Thumb Code    16  stm32f10x_gpio.o(.text)
    GPIO_ReadInputDataBit                    0x08000f25   Thumb Code    18  stm32f10x_gpio.o(.text)
    GPIO_ReadInputData                       0x08000f37   Thumb Code     8  stm32f10x_gpio.o(.text)
    GPIO_ReadOutputDataBit                   0x08000f3f   Thumb Code    18  stm32f10x_gpio.o(.text)
    GPIO_ReadOutputData                      0x08000f51   Thumb Code     8  stm32f10x_gpio.o(.text)
    GPIO_SetBits                             0x08000f59   Thumb Code     4  stm32f10x_gpio.o(.text)
    GPIO_ResetBits                           0x08000f5d   Thumb Code     4  stm32f10x_gpio.o(.text)
    GPIO_WriteBit                            0x08000f61   Thumb Code    10  stm32f10x_gpio.o(.text)
    GPIO_Write                               0x08000f6b   Thumb Code     4  stm32f10x_gpio.o(.text)
    GPIO_PinLockConfig                       0x08000f6f   Thumb Code    18  stm32f10x_gpio.o(.text)
    GPIO_EventOutputConfig                   0x08000f81   Thumb Code    24  stm32f10x_gpio.o(.text)
    GPIO_EventOutputCmd                      0x08000f99   Thumb Code     6  stm32f10x_gpio.o(.text)
    GPIO_PinRemapConfig                      0x08000f9f   Thumb Code   136  stm32f10x_gpio.o(.text)
    GPIO_EXTILineConfig                      0x08001027   Thumb Code    60  stm32f10x_gpio.o(.text)
    GPIO_ETH_MediaInterfaceConfig            0x08001063   Thumb Code     8  stm32f10x_gpio.o(.text)
    RCC_DeInit                               0x08001091   Thumb Code    64  stm32f10x_rcc.o(.text)
    RCC_HSEConfig                            0x080010d1   Thumb Code    70  stm32f10x_rcc.o(.text)
    RCC_GetFlagStatus                        0x08001117   Thumb Code    56  stm32f10x_rcc.o(.text)
    RCC_WaitForHSEStartUp                    0x0800114f   Thumb Code    48  stm32f10x_rcc.o(.text)
    RCC_AdjustHSICalibrationValue            0x0800117f   Thumb Code    18  stm32f10x_rcc.o(.text)
    RCC_HSICmd                               0x08001191   Thumb Code     6  stm32f10x_rcc.o(.text)
    RCC_PLLConfig                            0x08001197   Thumb Code    22  stm32f10x_rcc.o(.text)
    RCC_PLLCmd                               0x080011ad   Thumb Code     6  stm32f10x_rcc.o(.text)
    RCC_SYSCLKConfig                         0x080011b3   Thumb Code    16  stm32f10x_rcc.o(.text)
    RCC_GetSYSCLKSource                      0x080011c3   Thumb Code    10  stm32f10x_rcc.o(.text)
    RCC_HCLKConfig                           0x080011cd   Thumb Code    16  stm32f10x_rcc.o(.text)
    RCC_PCLK1Config                          0x080011dd   Thumb Code    16  stm32f10x_rcc.o(.text)
    RCC_PCLK2Config                          0x080011ed   Thumb Code    18  stm32f10x_rcc.o(.text)
    RCC_ITConfig                             0x080011ff   Thumb Code    30  stm32f10x_rcc.o(.text)
    RCC_USBCLKConfig                         0x0800121d   Thumb Code     8  stm32f10x_rcc.o(.text)
    RCC_ADCCLKConfig                         0x08001225   Thumb Code    16  stm32f10x_rcc.o(.text)
    RCC_LSEConfig                            0x08001235   Thumb Code    50  stm32f10x_rcc.o(.text)
    RCC_LSICmd                               0x08001267   Thumb Code     6  stm32f10x_rcc.o(.text)
    RCC_RTCCLKConfig                         0x0800126d   Thumb Code    12  stm32f10x_rcc.o(.text)
    RCC_RTCCLKCmd                            0x08001279   Thumb Code     8  stm32f10x_rcc.o(.text)
    RCC_GetClocksFreq                        0x08001281   Thumb Code   194  stm32f10x_rcc.o(.text)
    RCC_AHBPeriphClockCmd                    0x08001343   Thumb Code    26  stm32f10x_rcc.o(.text)
    RCC_APB2PeriphClockCmd                   0x0800135d   Thumb Code    26  stm32f10x_rcc.o(.text)
    RCC_APB1PeriphClockCmd                   0x08001377   Thumb Code    26  stm32f10x_rcc.o(.text)
    RCC_APB2PeriphResetCmd                   0x08001391   Thumb Code    26  stm32f10x_rcc.o(.text)
    RCC_APB1PeriphResetCmd                   0x080013ab   Thumb Code    26  stm32f10x_rcc.o(.text)
    RCC_BackupResetCmd                       0x080013c5   Thumb Code     8  stm32f10x_rcc.o(.text)
    RCC_ClockSecuritySystemCmd               0x080013cd   Thumb Code     6  stm32f10x_rcc.o(.text)
    RCC_MCOConfig                            0x080013d3   Thumb Code     6  stm32f10x_rcc.o(.text)
    RCC_ClearFlag                            0x080013d9   Thumb Code    14  stm32f10x_rcc.o(.text)
    RCC_GetITStatus                          0x080013e7   Thumb Code    20  stm32f10x_rcc.o(.text)
    RCC_ClearITPendingBit                    0x080013fb   Thumb Code     6  stm32f10x_rcc.o(.text)
    USART_DeInit                             0x08001421   Thumb Code   134  stm32f10x_usart.o(.text)
    USART_Init                               0x080014a7   Thumb Code   210  stm32f10x_usart.o(.text)
    USART_StructInit                         0x08001579   Thumb Code    24  stm32f10x_usart.o(.text)
    USART_ClockInit                          0x08001591   Thumb Code    32  stm32f10x_usart.o(.text)
    USART_ClockStructInit                    0x080015b1   Thumb Code    12  stm32f10x_usart.o(.text)
    USART_Cmd                                0x080015bd   Thumb Code    24  stm32f10x_usart.o(.text)
    USART_ITConfig                           0x080015d5   Thumb Code    72  stm32f10x_usart.o(.text)
    USART_DMACmd                             0x0800161d   Thumb Code    24  stm32f10x_usart.o(.text)
    USART_SetAddress                         0x08001635   Thumb Code    18  stm32f10x_usart.o(.text)
    USART_WakeUpConfig                       0x08001647   Thumb Code    18  stm32f10x_usart.o(.text)
    USART_ReceiverWakeUpCmd                  0x08001659   Thumb Code    24  stm32f10x_usart.o(.text)
    USART_LINBreakDetectLengthConfig         0x08001671   Thumb Code    18  stm32f10x_usart.o(.text)
    USART_LINCmd                             0x08001683   Thumb Code    24  stm32f10x_usart.o(.text)
    USART_SendData                           0x0800169b   Thumb Code     8  stm32f10x_usart.o(.text)
    USART_ReceiveData                        0x080016a3   Thumb Code    10  stm32f10x_usart.o(.text)
    USART_SendBreak                          0x080016ad   Thumb Code    10  stm32f10x_usart.o(.text)
    USART_SetGuardTime                       0x080016b7   Thumb Code    16  stm32f10x_usart.o(.text)
    USART_SetPrescaler                       0x080016c7   Thumb Code    16  stm32f10x_usart.o(.text)
    USART_SmartCardCmd                       0x080016d7   Thumb Code    24  stm32f10x_usart.o(.text)
    USART_SmartCardNACKCmd                   0x080016ef   Thumb Code    24  stm32f10x_usart.o(.text)
    USART_HalfDuplexCmd                      0x08001707   Thumb Code    24  stm32f10x_usart.o(.text)
    USART_OverSampling8Cmd                   0x0800171f   Thumb Code    22  stm32f10x_usart.o(.text)
    USART_OneBitMethodCmd                    0x08001735   Thumb Code    24  stm32f10x_usart.o(.text)
    USART_IrDAConfig                         0x0800174d   Thumb Code    18  stm32f10x_usart.o(.text)
    USART_IrDACmd                            0x0800175f   Thumb Code    24  stm32f10x_usart.o(.text)
    USART_GetFlagStatus                      0x08001777   Thumb Code    26  stm32f10x_usart.o(.text)
    USART_ClearFlag                          0x08001791   Thumb Code    18  stm32f10x_usart.o(.text)
    USART_GetITStatus                        0x080017a3   Thumb Code    84  stm32f10x_usart.o(.text)
    USART_ClearITPendingBit                  0x080017f7   Thumb Code    50  stm32f10x_usart.o(.text)
    TIM_DeInit                               0x08001829   Thumb Code   424  stm32f10x_tim.o(.text)
    TIM_TimeBaseInit                         0x080019d1   Thumb Code   122  stm32f10x_tim.o(.text)
    TIM_OC1Init                              0x08001a4b   Thumb Code   132  stm32f10x_tim.o(.text)
    TIM_OC2Init                              0x08001acf   Thumb Code   146  stm32f10x_tim.o(.text)
    TIM_OC3Init                              0x08001b61   Thumb Code   142  stm32f10x_tim.o(.text)
    TIM_OC4Init                              0x08001bef   Thumb Code   172  stm32f10x_tim.o(.text)
    TIM_SetIC4Prescaler                      0x08001c9b   Thumb Code    22  stm32f10x_tim.o(.text)
    TIM_SetIC3Prescaler                      0x08001d23   Thumb Code    18  stm32f10x_tim.o(.text)
    TIM_SetIC2Prescaler                      0x08001da3   Thumb Code    22  stm32f10x_tim.o(.text)
    TIM_SetIC1Prescaler                      0x08001e2b   Thumb Code    18  stm32f10x_tim.o(.text)
    TIM_ICInit                               0x08001ea3   Thumb Code   150  stm32f10x_tim.o(.text)
    TIM_PWMIConfig                           0x08001f39   Thumb Code   124  stm32f10x_tim.o(.text)
    TIM_BDTRConfig                           0x08001fb5   Thumb Code    32  stm32f10x_tim.o(.text)
    TIM_TimeBaseStructInit                   0x08001fd5   Thumb Code    18  stm32f10x_tim.o(.text)
    TIM_OCStructInit                         0x08001fe7   Thumb Code    20  stm32f10x_tim.o(.text)
    TIM_ICStructInit                         0x08001ffb   Thumb Code    18  stm32f10x_tim.o(.text)
    TIM_BDTRStructInit                       0x0800200d   Thumb Code    18  stm32f10x_tim.o(.text)
    TIM_Cmd                                  0x0800201f   Thumb Code    24  stm32f10x_tim.o(.text)
    TIM_CtrlPWMOutputs                       0x08002037   Thumb Code    50  stm32f10x_tim.o(.text)
    TIM_ITConfig                             0x08002069   Thumb Code    24  stm32f10x_tim.o(.text)
    TIM_GenerateEvent                        0x08002081   Thumb Code     4  stm32f10x_tim.o(.text)
    TIM_DMAConfig                            0x08002085   Thumb Code    10  stm32f10x_tim.o(.text)
    TIM_DMACmd                               0x0800208f   Thumb Code    24  stm32f10x_tim.o(.text)
    TIM_InternalClockConfig                  0x080020a7   Thumb Code    12  stm32f10x_tim.o(.text)
    TIM_SelectInputTrigger                   0x080020b3   Thumb Code    16  stm32f10x_tim.o(.text)
    TIM_ITRxExternalClockConfig              0x080020c3   Thumb Code    24  stm32f10x_tim.o(.text)
    TIM_TIxExternalClockConfig               0x080020db   Thumb Code    62  stm32f10x_tim.o(.text)
    TIM_ETRConfig                            0x08002119   Thumb Code    22  stm32f10x_tim.o(.text)
    TIM_ETRClockMode1Config                  0x0800212f   Thumb Code    54  stm32f10x_tim.o(.text)
    TIM_ETRClockMode2Config                  0x08002165   Thumb Code    32  stm32f10x_tim.o(.text)
    TIM_PrescalerConfig                      0x08002185   Thumb Code     6  stm32f10x_tim.o(.text)
    TIM_CounterModeConfig                    0x0800218b   Thumb Code    16  stm32f10x_tim.o(.text)
    TIM_EncoderInterfaceConfig               0x0800219b   Thumb Code    56  stm32f10x_tim.o(.text)
    TIM_ForcedOC1Config                      0x080021d3   Thumb Code    16  stm32f10x_tim.o(.text)
    TIM_ForcedOC2Config                      0x080021e3   Thumb Code    20  stm32f10x_tim.o(.text)
    TIM_ForcedOC3Config                      0x080021f7   Thumb Code    16  stm32f10x_tim.o(.text)
    TIM_ForcedOC4Config                      0x08002207   Thumb Code    20  stm32f10x_tim.o(.text)
    TIM_ARRPreloadConfig                     0x0800221b   Thumb Code    24  stm32f10x_tim.o(.text)
    TIM_SelectCOM                            0x08002233   Thumb Code    24  stm32f10x_tim.o(.text)
    TIM_SelectCCDMA                          0x0800224b   Thumb Code    24  stm32f10x_tim.o(.text)
    TIM_CCPreloadControl                     0x08002263   Thumb Code    24  stm32f10x_tim.o(.text)
    TIM_OC1PreloadConfig                     0x0800227b   Thumb Code    16  stm32f10x_tim.o(.text)
    TIM_OC2PreloadConfig                     0x0800228b   Thumb Code    20  stm32f10x_tim.o(.text)
    TIM_OC3PreloadConfig                     0x0800229f   Thumb Code    16  stm32f10x_tim.o(.text)
    TIM_OC4PreloadConfig                     0x080022af   Thumb Code    20  stm32f10x_tim.o(.text)
    TIM_OC1FastConfig                        0x080022c3   Thumb Code    16  stm32f10x_tim.o(.text)
    TIM_OC2FastConfig                        0x080022d3   Thumb Code    20  stm32f10x_tim.o(.text)
    TIM_OC3FastConfig                        0x080022e7   Thumb Code    16  stm32f10x_tim.o(.text)
    TIM_OC4FastConfig                        0x080022f7   Thumb Code    20  stm32f10x_tim.o(.text)
    TIM_ClearOC1Ref                          0x0800230b   Thumb Code    16  stm32f10x_tim.o(.text)
    TIM_ClearOC2Ref                          0x0800231b   Thumb Code    18  stm32f10x_tim.o(.text)
    TIM_ClearOC3Ref                          0x0800232d   Thumb Code    16  stm32f10x_tim.o(.text)
    TIM_ClearOC4Ref                          0x0800233d   Thumb Code    18  stm32f10x_tim.o(.text)
    TIM_OC1PolarityConfig                    0x0800234f   Thumb Code    16  stm32f10x_tim.o(.text)
    TIM_OC1NPolarityConfig                   0x0800235f   Thumb Code    16  stm32f10x_tim.o(.text)
    TIM_OC2PolarityConfig                    0x0800236f   Thumb Code    20  stm32f10x_tim.o(.text)
    TIM_OC2NPolarityConfig                   0x08002383   Thumb Code    20  stm32f10x_tim.o(.text)
    TIM_OC3PolarityConfig                    0x08002397   Thumb Code    20  stm32f10x_tim.o(.text)
    TIM_OC3NPolarityConfig                   0x080023ab   Thumb Code    20  stm32f10x_tim.o(.text)
    TIM_OC4PolarityConfig                    0x080023bf   Thumb Code    20  stm32f10x_tim.o(.text)
    TIM_CCxCmd                               0x080023d3   Thumb Code    34  stm32f10x_tim.o(.text)
    TIM_CCxNCmd                              0x080023f5   Thumb Code    34  stm32f10x_tim.o(.text)
    TIM_SelectOCxM                           0x08002417   Thumb Code    82  stm32f10x_tim.o(.text)
    TIM_UpdateDisableConfig                  0x08002469   Thumb Code    24  stm32f10x_tim.o(.text)
    TIM_UpdateRequestConfig                  0x08002481   Thumb Code    24  stm32f10x_tim.o(.text)
    TIM_SelectHallSensor                     0x08002499   Thumb Code    24  stm32f10x_tim.o(.text)
    TIM_SelectOnePulseMode                   0x080024b1   Thumb Code    18  stm32f10x_tim.o(.text)
    TIM_SelectOutputTrigger                  0x080024c3   Thumb Code    18  stm32f10x_tim.o(.text)
    TIM_SelectSlaveMode                      0x080024d5   Thumb Code    18  stm32f10x_tim.o(.text)
    TIM_SelectMasterSlaveMode                0x080024e7   Thumb Code    18  stm32f10x_tim.o(.text)
    TIM_SetCounter                           0x080024f9   Thumb Code     4  stm32f10x_tim.o(.text)
    TIM_SetAutoreload                        0x080024fd   Thumb Code     4  stm32f10x_tim.o(.text)
    TIM_SetCompare1                          0x08002501   Thumb Code     4  stm32f10x_tim.o(.text)
    TIM_SetCompare2                          0x08002505   Thumb Code     4  stm32f10x_tim.o(.text)
    TIM_SetCompare3                          0x08002509   Thumb Code     4  stm32f10x_tim.o(.text)
    TIM_SetCompare4                          0x0800250d   Thumb Code     6  stm32f10x_tim.o(.text)
    TIM_SetClockDivision                     0x08002513   Thumb Code    18  stm32f10x_tim.o(.text)
    TIM_GetCapture1                          0x08002525   Thumb Code     6  stm32f10x_tim.o(.text)
    TIM_GetCapture2                          0x0800252b   Thumb Code     6  stm32f10x_tim.o(.text)
    TIM_GetCapture3                          0x08002531   Thumb Code     6  stm32f10x_tim.o(.text)
    TIM_GetCapture4                          0x08002537   Thumb Code     8  stm32f10x_tim.o(.text)
    TIM_GetCounter                           0x0800253f   Thumb Code     6  stm32f10x_tim.o(.text)
    TIM_GetPrescaler                         0x08002545   Thumb Code     6  stm32f10x_tim.o(.text)
    TIM_GetFlagStatus                        0x0800254b   Thumb Code    18  stm32f10x_tim.o(.text)
    TIM_ClearFlag                            0x0800255d   Thumb Code     6  stm32f10x_tim.o(.text)
    TIM_GetITStatus                          0x08002563   Thumb Code    34  stm32f10x_tim.o(.text)
    TIM_ClearITPendingBit                    0x08002585   Thumb Code     6  stm32f10x_tim.o(.text)
    usmart_sys_cmd_exe                       0x0800258d   Thumb Code  1646  usmart.o(.text)
    usmart_reset_runtime                     0x08002bfb   Thumb Code    34  usmart.o(.text)
    usmart_get_runtime                       0x08002c1d   Thumb Code    58  usmart.o(.text)
    TIM2_IRQHandler                          0x08002c57   Thumb Code    52  usmart.o(.text)
    Timer2_Init                              0x08002c8b   Thumb Code    90  usmart.o(.text)
    usmart_init                              0x08002ce5   Thumb Code    36  usmart.o(.text)
    usmart_cmd_rec                           0x08002d09   Thumb Code   170  usmart.o(.text)
    usmart_exe                               0x08002db3   Thumb Code   762  usmart.o(.text)
    usmart_scan                              0x080030ad   Thumb Code   122  usmart.o(.text)
    read_addr                                0x08003127   Thumb Code     6  usmart.o(.text)
    write_addr                               0x0800312d   Thumb Code     4  usmart.o(.text)
    usmart_strcmp                            0x080031a9   Thumb Code    34  usmart_str.o(.text)
    usmart_strcopy                           0x080031cb   Thumb Code    22  usmart_str.o(.text)
    usmart_strlen                            0x080031e1   Thumb Code    24  usmart_str.o(.text)
    usmart_pow                               0x080031f9   Thumb Code    22  usmart_str.o(.text)
    usmart_str2num                           0x0800320f   Thumb Code   236  usmart_str.o(.text)
    usmart_get_cmdname                       0x080032fb   Thumb Code    52  usmart_str.o(.text)
    usmart_search_nextc                      0x0800332f   Thumb Code    22  usmart_str.o(.text)
    usmart_get_fname                         0x08003345   Thumb Code   536  usmart_str.o(.text)
    usmart_get_aparm                         0x0800355d   Thumb Code   198  usmart_str.o(.text)
    usmart_get_parmpos                       0x08003623   Thumb Code    26  usmart_str.o(.text)
    usmart_get_fparam                        0x0800363d   Thumb Code   282  usmart_str.o(.text)
    __use_no_semihosting                     0x08003765   Thumb Code     2  use_no_semi_2.o(.text)
    __2printf                                0x08003769   Thumb Code    24  noretval__2printf.o(.text)
    _printf_pre_padding                      0x08003789   Thumb Code    42  _printf_pad.o(.text)
    _printf_post_padding                     0x080037b3   Thumb Code    34  _printf_pad.o(.text)
    _printf_str                              0x080037d5   Thumb Code    82  _printf_str.o(.text)
    _printf_int_dec                          0x08003829   Thumb Code    96  _printf_dec.o(.text)
    _printf_int_hex                          0x08003899   Thumb Code    86  _printf_hex_int.o(.text)
    _printf_longlong_hex                     0x08003899   Thumb Code     0  _printf_hex_int.o(.text)
    __printf                                 0x080038f5   Thumb Code   410  __printf_flags_ss_wp.o(.text)
    __use_two_region_memory                  0x08003a95   Thumb Code     2  heapauxi.o(.text)
    __rt_heap_escrow$2region                 0x08003a97   Thumb Code     2  heapauxi.o(.text)
    __rt_heap_expand$2region                 0x08003a99   Thumb Code     2  heapauxi.o(.text)
    __I$use$semihosting                      0x08003a9b   Thumb Code     0  use_no_semi.o(.text)
    __use_no_semihosting_swi                 0x08003a9b   Thumb Code     2  use_no_semi.o(.text)
    _printf_int_common                       0x08003a9d   Thumb Code   174  _printf_intcommon.o(.text)
    _printf_char_common                      0x08003b57   Thumb Code    34  _printf_char_common.o(.text)
    _printf_cs_common                        0x08003b7d   Thumb Code    20  _printf_char.o(.text)
    _printf_char                             0x08003b91   Thumb Code    16  _printf_char.o(.text)
    _printf_string                           0x08003ba1   Thumb Code     8  _printf_char.o(.text)
    __rt_udiv10                              0x08003ba9   Thumb Code    16  rtudiv10.o(.text)
    __user_setup_stackheap                   0x08003bb9   Thumb Code    74  sys_stackheap_outer.o(.text)
    exit                                     0x08003c03   Thumb Code    12  exit.o(.text)
    __user_libspace                          0x08003c11   Thumb Code     8  libspace.o(.text)
    __user_perproc_libspace                  0x08003c11   Thumb Code     0  libspace.o(.text)
    __user_perthread_libspace                0x08003c11   Thumb Code     0  libspace.o(.text)
    Region$$Table$$Base                      0x08003d10   Number         0  anon$$obj.o(Region$$Table)
    Region$$Table$$Limit                     0x08003d30   Number         0  anon$$obj.o(Region$$Table)
    SystemCoreClock                          0x20000000   Data           4  system_stm32f10x.o(.data)
    AHBPrescTable                            0x20000004   Data          16  system_stm32f10x.o(.data)
    calendar                                 0x20000014   Data           7  ds3231.o(.data)
    USART_RX_STA                             0x20000020   Data           2  usart.o(.data)
    __stdout                                 0x20000024   Data           4  usart.o(.data)
    sys_cmd_tab                              0x2000003c   Data          28  usmart.o(.data)
    usmart_nametab                           0x20000058   Data          40  usmart_config.o(.data)
    usmart_dev                               0x20000080   Data         244  usmart_config.o(.data)
    USART_RX_BUF                             0x20000174   Data         200  usart.o(.bss)
    __libspace_start                         0x2000023c   Data          96  libspace.o(.bss)
    __temporary_stack_top$libspace           0x2000029c   Data           0  libspace.o(.bss)



==============================================================================

Memory Map of the image

  Image Entry point : 0x08000131

  Load Region LR_IROM1 (Base: 0x08000000, Size: 0x00003ea4, Max: 0x00080000, ABSOLUTE, COMPRESSED[0x00003d98])

    Execution Region ER_IROM1 (Base: 0x08000000, Size: 0x00003d30, Max: 0x00080000, ABSOLUTE)

    Base Addr    Size         Type   Attr      Idx    E Section Name        Object

    0x08000000   0x00000130   Data   RO          280    RESET               startup_stm32f10x_hd.o
    0x08000130   0x00000008   Code   RO          463  * !!!main             __main.o(c_w.l)
    0x08000138   0x00000034   Code   RO          635    !!!scatter          __scatter.o(c_w.l)
    0x0800016c   0x0000005a   Code   RO          633    !!dczerorl2         __dczerorl2.o(c_w.l)
    0x080001c6   0x00000002   PAD
    0x080001c8   0x0000001c   Code   RO          637    !!handler_zi        __scatter_zi.o(c_w.l)
    0x080001e4   0x00000000   Code   RO          460    .ARM.Collect$$_printf_percent$$00000000  _printf_percent.o(c_w.l)
    0x080001e4   0x00000006   Code   RO          458    .ARM.Collect$$_printf_percent$$00000009  _printf_d.o(c_w.l)
    0x080001ea   0x00000006   Code   RO          459    .ARM.Collect$$_printf_percent$$0000000A  _printf_u.o(c_w.l)
    0x080001f0   0x00000006   Code   RO          457    .ARM.Collect$$_printf_percent$$0000000C  _printf_x.o(c_w.l)
    0x080001f6   0x00000006   Code   RO          455    .ARM.Collect$$_printf_percent$$00000013  _printf_c.o(c_w.l)
    0x080001fc   0x00000006   Code   RO          456    .ARM.Collect$$_printf_percent$$00000014  _printf_s.o(c_w.l)
    0x08000202   0x00000004   Code   RO          475    .ARM.Collect$$_printf_percent$$00000017  _printf_percent_end.o(c_w.l)
    0x08000206   0x00000006   Code   RO          512    .ARM.Collect$$libinit$$00000000  libinit.o(c_w.l)
    0x0800020c   0x00000000   Code   RO          520    .ARM.Collect$$libinit$$00000006  libinit2.o(c_w.l)
    0x0800020c   0x00000000   Code   RO          522    .ARM.Collect$$libinit$$00000008  libinit2.o(c_w.l)
    0x0800020c   0x00000000   Code   RO          524    .ARM.Collect$$libinit$$0000000A  libinit2.o(c_w.l)
    0x0800020c   0x00000000   Code   RO          527    .ARM.Collect$$libinit$$0000000D  libinit2.o(c_w.l)
    0x0800020c   0x00000000   Code   RO          529    .ARM.Collect$$libinit$$0000000F  libinit2.o(c_w.l)
    0x0800020c   0x00000000   Code   RO          531    .ARM.Collect$$libinit$$00000011  libinit2.o(c_w.l)
    0x0800020c   0x00000000   Code   RO          533    .ARM.Collect$$libinit$$00000013  libinit2.o(c_w.l)
    0x0800020c   0x00000000   Code   RO          535    .ARM.Collect$$libinit$$00000015  libinit2.o(c_w.l)
    0x0800020c   0x00000000   Code   RO          537    .ARM.Collect$$libinit$$00000017  libinit2.o(c_w.l)
    0x0800020c   0x00000000   Code   RO          539    .ARM.Collect$$libinit$$00000019  libinit2.o(c_w.l)
    0x0800020c   0x00000000   Code   RO          541    .ARM.Collect$$libinit$$0000001B  libinit2.o(c_w.l)
    0x0800020c   0x00000000   Code   RO          543    .ARM.Collect$$libinit$$0000001D  libinit2.o(c_w.l)
    0x0800020c   0x00000000   Code   RO          545    .ARM.Collect$$libinit$$0000001F  libinit2.o(c_w.l)
    0x0800020c   0x00000000   Code   RO          547    .ARM.Collect$$libinit$$00000021  libinit2.o(c_w.l)
    0x0800020c   0x00000000   Code   RO          551    .ARM.Collect$$libinit$$00000028  libinit2.o(c_w.l)
    0x0800020c   0x00000000   Code   RO          553    .ARM.Collect$$libinit$$0000002A  libinit2.o(c_w.l)
    0x0800020c   0x00000000   Code   RO          555    .ARM.Collect$$libinit$$0000002C  libinit2.o(c_w.l)
    0x0800020c   0x00000000   Code   RO          557    .ARM.Collect$$libinit$$0000002E  libinit2.o(c_w.l)
    0x0800020c   0x00000002   Code   RO          558    .ARM.Collect$$libinit$$0000002F  libinit2.o(c_w.l)
    0x0800020e   0x00000002   Code   RO          577    .ARM.Collect$$libshutdown$$00000000  libshutdown.o(c_w.l)
    0x08000210   0x00000000   Code   RO          588    .ARM.Collect$$libshutdown$$00000003  libshutdown2.o(c_w.l)
    0x08000210   0x00000000   Code   RO          591    .ARM.Collect$$libshutdown$$00000006  libshutdown2.o(c_w.l)
    0x08000210   0x00000000   Code   RO          594    .ARM.Collect$$libshutdown$$00000009  libshutdown2.o(c_w.l)
    0x08000210   0x00000000   Code   RO          596    .ARM.Collect$$libshutdown$$0000000B  libshutdown2.o(c_w.l)
    0x08000210   0x00000000   Code   RO          599    .ARM.Collect$$libshutdown$$0000000E  libshutdown2.o(c_w.l)
    0x08000210   0x00000002   Code   RO          600    .ARM.Collect$$libshutdown$$0000000F  libshutdown2.o(c_w.l)
    0x08000212   0x00000000   Code   RO          467    .ARM.Collect$$rtentry$$00000000  rtentry.o(c_w.l)
    0x08000212   0x00000000   Code   RO          483    .ARM.Collect$$rtentry$$00000002  rtentry2.o(c_w.l)
    0x08000212   0x00000006   Code   RO          498    .ARM.Collect$$rtentry$$00000004  rtentry4.o(c_w.l)
    0x08000218   0x00000000   Code   RO          485    .ARM.Collect$$rtentry$$00000009  rtentry2.o(c_w.l)
    0x08000218   0x00000004   Code   RO          486    .ARM.Collect$$rtentry$$0000000A  rtentry2.o(c_w.l)
    0x0800021c   0x00000000   Code   RO          488    .ARM.Collect$$rtentry$$0000000C  rtentry2.o(c_w.l)
    0x0800021c   0x00000008   Code   RO          489    .ARM.Collect$$rtentry$$0000000D  rtentry2.o(c_w.l)
    0x08000224   0x00000000   Code   RO          516    .ARM.Collect$$rtexit$$00000000  rtexit.o(c_w.l)
    0x08000224   0x00000000   Code   RO          562    .ARM.Collect$$rtexit$$00000002  rtexit2.o(c_w.l)
    0x08000224   0x00000004   Code   RO          563    .ARM.Collect$$rtexit$$00000003  rtexit2.o(c_w.l)
    0x08000228   0x00000004   Code   RO          564    .ARM.Collect$$rtexit$$00000004  rtexit2.o(c_w.l)
    0x0800022c   0x000000b0   Code   RO            1    .text               main.o
    0x080002dc   0x0000001a   Code   RO           78    .text               stm32f10x_it.o
    0x080002f6   0x00000002   PAD
    0x080002f8   0x000001c8   Code   RO          110    .text               system_stm32f10x.o
    0x080004c0   0x000002cc   Code   RO          128    .text               myiic.o
    0x0800078c   0x0000023c   Code   RO          181    .text               ds3231.o
    0x080009c8   0x0000004c   Code   RO          203    .text               led.o
    0x08000a14   0x000000c0   Code   RO          218    .text               delay.o
    0x08000ad4   0x0000000c   Code   RO          232    .text               sys.o
    0x08000ae0   0x00000148   Code   RO          244    .text               usart.o
    0x08000c28   0x00000040   Code   RO          281    .text               startup_stm32f10x_hd.o
    0x08000c68   0x000000e0   Code   RO          285    .text               misc.o
    0x08000d48   0x00000348   Code   RO          297    .text               stm32f10x_gpio.o
    0x08001090   0x00000390   Code   RO          309    .text               stm32f10x_rcc.o
    0x08001420   0x00000408   Code   RO          323    .text               stm32f10x_usart.o
    0x08001828   0x00000d62   Code   RO          335    .text               stm32f10x_tim.o
    0x0800258a   0x00000002   PAD
    0x0800258c   0x00000c1c   Code   RO          347    .text               usmart.o
    0x080031a8   0x000005bc   Code   RO          388    .text               usmart_str.o
    0x08003764   0x00000002   Code   RO          402    .text               use_no_semi_2.o(c_w.l)
    0x08003766   0x00000002   PAD
    0x08003768   0x00000020   Code   RO          406    .text               noretval__2printf.o(c_w.l)
    0x08003788   0x0000004c   Code   RO          410    .text               _printf_pad.o(c_w.l)
    0x080037d4   0x00000052   Code   RO          412    .text               _printf_str.o(c_w.l)
    0x08003826   0x00000002   PAD
    0x08003828   0x00000070   Code   RO          414    .text               _printf_dec.o(c_w.l)
    0x08003898   0x0000005c   Code   RO          419    .text               _printf_hex_int.o(c_w.l)
    0x080038f4   0x000001a0   Code   RO          452    .text               __printf_flags_ss_wp.o(c_w.l)
    0x08003a94   0x00000006   Code   RO          461    .text               heapauxi.o(c_w.l)
    0x08003a9a   0x00000002   Code   RO          465    .text               use_no_semi.o(c_w.l)
    0x08003a9c   0x000000ae   Code   RO          469    .text               _printf_intcommon.o(c_w.l)
    0x08003b4a   0x00000002   PAD
    0x08003b4c   0x00000030   Code   RO          471    .text               _printf_char_common.o(c_w.l)
    0x08003b7c   0x0000002c   Code   RO          473    .text               _printf_char.o(c_w.l)
    0x08003ba8   0x00000010   Code   RO          480    .text               rtudiv10.o(c_w.l)
    0x08003bb8   0x0000004a   Code   RO          502    .text               sys_stackheap_outer.o(c_w.l)
    0x08003c02   0x0000000c   Code   RO          504    .text               exit.o(c_w.l)
    0x08003c0e   0x00000002   PAD
    0x08003c10   0x00000008   Code   RO          513    .text               libspace.o(c_w.l)
    0x08003c18   0x00000028   Data   RO          420    .constdata          _printf_hex_int.o(c_w.l)
    0x08003c40   0x00000011   Data   RO          453    .constdata          __printf_flags_ss_wp.o(c_w.l)
    0x08003c51   0x0000001f   Data   RO          349    .conststring        usmart.o
    0x08003c70   0x0000009e   Data   RO          375    .conststring        usmart_config.o
    0x08003d0e   0x00000002   PAD
    0x08003d10   0x00000020   Data   RO          631    Region$$Table       anon$$obj.o


    Execution Region RW_IRAM1 (Base: 0x20000000, Size: 0x000008a0, Max: 0x00010000, ABSOLUTE, COMPRESSED[0x00000068])

    Base Addr    Size         Type   Attr      Idx    E Section Name        Object

    0x20000000   0x00000014   Data   RW          111    .data               system_stm32f10x.o
    0x20000014   0x00000007   Data   RW          182    .data               ds3231.o
    0x2000001b   0x00000001   PAD
    0x2000001c   0x00000004   Data   RW          219    .data               delay.o
    0x20000020   0x00000008   Data   RW          246    .data               usart.o
    0x20000028   0x00000014   Data   RW          310    .data               stm32f10x_rcc.o
    0x2000003c   0x0000001c   Data   RW          350    .data               usmart.o
    0x20000058   0x0000011c   Data   RW          376    .data               usmart_config.o
    0x20000174   0x000000c8   Zero   RW          245    .bss                usart.o
    0x2000023c   0x00000060   Zero   RW          514    .bss                libspace.o(c_w.l)
    0x2000029c   0x00000004   PAD
    0x200002a0   0x00000200   Zero   RW          279    HEAP                startup_stm32f10x_hd.o
    0x200004a0   0x00000400   Zero   RW          278    STACK               startup_stm32f10x_hd.o


==============================================================================

Image component sizes


      Code (inc. data)   RO Data    RW Data    ZI Data      Debug   Object Name

         0          0          0          0          0         20   core_cm3.o
       192         12          0          4          0        951   delay.o
       572          4          0          7          0       2808   ds3231.o
        76          8          0          0          0        459   led.o
       176         52          0          0          0     207715   main.o
       224         20          0          0          0       1733   misc.o
       716         18          0          0          0     249900   myiic.o
        64         26        304          0       1536        472   startup_stm32f10x_hd.o
       840         38          0          0          0       5617   stm32f10x_gpio.o
        26          0          0          0          0       1154   stm32f10x_it.o
       912         32          0         20          0       8712   stm32f10x_rcc.o
      3426         84          0          0          0      22324   stm32f10x_tim.o
      1032         20          0          0          0       8368   stm32f10x_usart.o
        12          0          0          0          0        417   sys.o
       456         36          0         20          0       1667   system_stm32f10x.o
       328         18          0          8        200       2990   usart.o
      3100       1282         31         28          0       4214   usmart.o
         0          0        158        284          0       1532   usmart_config.o
      1468         14          0          0          0       5037   usmart_str.o

    ----------------------------------------------------------------------
     13624       1664        527        372       1736     526090   Object Totals
         0          0         32          0          0          0   (incl. Generated)
         4          0          2          1          0          0   (incl. Padding)

    ----------------------------------------------------------------------

      Code (inc. data)   RO Data    RW Data    ZI Data      Debug   Library Member Name

        90          0          0          0          0          0   __dczerorl2.o
         8          0          0          0          0         68   __main.o
       416          6         17          0          0         88   __printf_flags_ss_wp.o
        52          8          0          0          0          0   __scatter.o
        28          0          0          0          0          0   __scatter_zi.o
         6          0          0          0          0          0   _printf_c.o
        44          0          0          0          0        108   _printf_char.o
        48          4          0          0          0         96   _printf_char_common.o
         6          0          0          0          0          0   _printf_d.o
       112         16          0          0          0         92   _printf_dec.o
        92          6         40          0          0         84   _printf_hex_int.o
       174          0          0          0          0         88   _printf_intcommon.o
        76          0          0          0          0        104   _printf_pad.o
         0          0          0          0          0          0   _printf_percent.o
         4          0          0          0          0          0   _printf_percent_end.o
         6          0          0          0          0          0   _printf_s.o
        82          0          0          0          0         80   _printf_str.o
         6          0          0          0          0          0   _printf_u.o
         6          0          0          0          0          0   _printf_x.o
        12          0          0          0          0         68   exit.o
         6          0          0          0          0        148   heapauxi.o
         6          0          0          0          0          0   libinit.o
         2          0          0          0          0          0   libinit2.o
         2          0          0          0          0          0   libshutdown.o
         2          0          0          0          0          0   libshutdown2.o
         8          4          0          0         96         68   libspace.o
        32          8          0          0          0         80   noretval__2printf.o
         0          0          0          0          0          0   rtentry.o
        12          0          0          0          0          0   rtentry2.o
         6          0          0          0          0          0   rtentry4.o
         0          0          0          0          0          0   rtexit.o
         8          0          0          0          0          0   rtexit2.o
        16          0          0          0          0         68   rtudiv10.o
        74          0          0          0          0         80   sys_stackheap_outer.o
         2          0          0          0          0         68   use_no_semi.o
         2          0          0          0          0         68   use_no_semi_2.o

    ----------------------------------------------------------------------
      1456         52         57          0        100       1456   Library Totals
        10          0          0          0          4          0   (incl. Padding)

    ----------------------------------------------------------------------

      Code (inc. data)   RO Data    RW Data    ZI Data      Debug   Library Name

      1446         52         57          0         96       1456   c_w.l

    ----------------------------------------------------------------------
      1456         52         57          0        100       1456   Library Totals

    ----------------------------------------------------------------------

==============================================================================


      Code (inc. data)   RO Data    RW Data    ZI Data      Debug   

     15080       1716        584        372       1836     525396   Grand Totals
     15080       1716        584        104       1836     525396   ELF Image Totals (compressed)
     15080       1716        584        104          0          0   ROM Totals

==============================================================================

    Total RO  Size (Code + RO Data)                15664 (  15.30kB)
    Total RW  Size (RW Data + ZI Data)              2208 (   2.16kB)
    Total ROM Size (Code + RO Data + RW Data)      15768 (  15.40kB)

==============================================================================

