:020000040800F2
:10000000A0080020290C0008DD020008DF0200081B
:10001000E3020008E7020008EB020008000000000D
:10002000000000000000000000000000EF020008D7
:10003000F102000800000000F3020008F5020008C9
:10004000430C0008430C0008430C0008430C000854
:10005000430C0008430C0008430C0008430C000844
:10006000430C0008430C0008430C0008430C000834
:10007000430C0008430C0008430C0008430C000824
:10008000430C0008430C0008430C0008430C000814
:10009000430C0008430C0008430C0008430C000804
:1000A000430C0008430C0008430C0008430C0008F4
:1000B000572C0008430C0008430C0008430C0008B0
:1000C000430C0008430C0008430C0008430C0008D4
:1000D000430C00089B0B0008430C0008430C00086D
:1000E000430C0008430C0008430C0008430C0008B4
:1000F000430C0008430C0008430C0008430C0008A4
:10010000430C0008430C0008430C0008430C000893
:10011000430C0008430C0008430C0008430C000883
:10012000430C0008430C0008430C0008430C000873
:1001300000F002F800F06DF80AA090E8000C82448C
:100140008344AAF10107DA4501D100F062F8AFF269
:10015000090EBAE80F0013F0010F18BFFB1A43F0A5
:1001600001031847AC3B0000CC3B00000A444FF0B1
:10017000000C10F8013B13F0070408BF10F8014B06
:100180001D1108BF10F8015B641E05D010F8016B4B
:10019000641E01F8016BF9D113F0080F1EBF10F8AF
:1001A000014BAD1C0C1B09D16D1E58BF01F801CBD2
:1001B000FAD505E014F8016B01F8016B6D1EF9D555
:1001C0009142D6D37047000000230024002500266A
:1001D000103A28BF78C1FBD8520728BF30C148BFAA
:1001E0000B607047642903F01F83752903F01C839B
:1001F000782903F05183632903F0CA84732903F03B
:10020000CF84002070471FB5AFF300801FBD10B52D
:1002100010BD03F0D1FC1146FFF7F5FF00F006F822
:1002200003F0EFFCFFF7F3FF00F05AFC10B50024D9
:1002300000F0F0FB00F04EFC4FF4165000F05EFCB6
:1002400000F009FB00F0C0FB1748416848208847D0
:1002500029E000F074FB4FF4FA7000F012FC134830
:100260008078A0421FD01148847811A003F07CFA56
:100270000E4843790279C07800F5FA610EA003F0C8
:1002800073FA10A003F070FA084883784278017876
:100290000EA003F069FA1048006808B9012000E0D8
:1002A00000200D490860D4E78000002014000020E1
:1002B000C4EAD4C2C8D53A00256C642C25642C2528
:1002C000640D0A00CAB1B7D6C3EB3A0025642C25E9
:1002D000642C25640D0A000094812142704700BF00
:1002E000FEE700BFFEE700BFFEE700BFFEE7704786
:1002F000704770477047000000200021674A12686D
:1003000042F48032654B1A6000BF644A126802F4FE
:100310000031401C11B9B0F5A06FF6D15F4A1268E8
:1003200012F4003F01D0012100E00021012942D157
:100330005B4A126842F01002594B1A601A46126862
:1003400022F003021A601A46126842F002021A6092
:10035000524A5268514B5A601A4652685A601A46BD
:10036000526842F480625A601A46526822F47C1243
:100370005A601A46526842F4E8125A601A461268E5
:1003800042F080721A6000BF444A126812F0007F87
:10039000FAD0424A526822F00302404B5A601A4691
:1003A000526842F002025A6000BF3C4A526802F0B2
:1003B0000C02082AF9D1704710B5FFF79DFF10BD58
:1003C00010B53648006840F001003449086008461E
:1003D000406834490840314948600846006832495D
:1003E00008402E4908600846006820F48020086014
:1003F0000846406820F4FE0048604FF41F00886003
:10040000FFF7DAFF4FF000602849086010BD10B513
:10041000002000210022214B5B6803F00C0020B17A
:10042000042806D0082828D107E0214B214C23605E
:1004300027E01F4B1F4C236023E0184B5B6803F43D
:100440007011164B5B6803F48032022303EB914179
:1004500022B9194B4B43174C23600DE00F4B5B68DF
:1004600013F4003F04D0144B4B43124C236003E0C1
:100470000F4B4B430F4C236003E00D4B0D4C23609F
:1004800000BF00BF054B5B68C3F303130B4CE05C7C
:10049000084B1B68C340074C236010BD001002408E
:1004A000002002400000FFF8FFFFF6FE08ED00E02C
:1004B00000127A000000002000093D000400002026
:1004C00008B50121082000F049FF4FF44060ADF865
:1004D000000010208DF8030003208DF8020069460B
:1004E000A64800F091FC4FF44061A44800F034FDB0
:1004F00008BD10B5A148001D006820F47040A04957
:10050000C1F8040C0846D0F8040C40F440509B4954
:10051000091D086001209B49086000F090FA012045
:100520009949C1F8A801052000F089FA00209649F0
:10053000C1F8AC01052000F082FA00209249C1F810
:10054000A801022000F07BFA10BD10B58B48001DF9
:10055000006820F470408A49C1F8040C0846D0F8BD
:10056000040C40F440508549091D0860002085496D
:10057000091F08608449C1F8AC01042000F05FFA4B
:1005800001208149C1F8A801052000F058FA012096
:100590007D49C1F8AC01042000F051FA10BD10B53E
:1005A00000247648001D006820F470407449C1F8AA
:1005B000040C0846D0F8040C40F400406F49091DB3
:1005C000086001206F49086000F039FA01206E4987
:1005D000C1F8A80100F033FA07E0601CC4B2FA2C9D
:1005E00003DDFFF7B2FF012010BD664880380068C8
:1005F0000028F2D16349091F0860F5E710B5002013
:100600006049091F08605E48D0F8040C20F470406F
:100610005B49C1F8040C0846D0F8040C40F4405083
:100620005649091D086000205749C1F8AC01022055
:1006300000F005FA01205449C1F8A801022000F099
:10064000FEF900205049C1F8A80110BD10B50020E6
:100650004C49091F08604A48D0F8040C20F4704047
:100660004749C1F8040C0846D0F8040C40F4405047
:100670004249091D086001204349C1F8AC0102202C
:1006800000F0DDF901204049C1F8A801022000F086
:10069000D6F900203C49C1F8A80110BD70B5054647
:1006A0003648001D006820F470403549C1F8040C3C
:1006B0000846D0F8040C40F440503049091D086049
:1006C00000203049091F086000241DE0E80903D01C
:1006D00001202C49086002E000202A4908606806D1
:1006E000050E022000F0ABF901202649091F086021
:1006F000022000F0A4F900202349C1F8A80102203B
:1007000000F09DF9601CC4B2082CDFDB70BD70B531
:10071000044600251948001D006820F4704018495F
:10072000C1F8040C0846D0F8040C40F40040C1F8AD
:10073000040C002617E000201249091F086002205F
:1007400000F07DF901201049C1F8A8016806050EE6
:100750000C488038006808B1681CC5B2012000F060
:100760006EF9701CC6B2082EE5DB14B9FFF76EFFF8
:1007700001E0FFF743FF284670BD0000000C014078
:1007800000000140AC81214200802142014601F07D
:100790000F00091100BF01EB810251004218D0B2D5
:1007A000704730B501460A2491FBF4F4E3B20A2401
:1007B00091FBF4F504FB1514E2B202EB0314E0B272
:1007C00030BD70B504460D46FFF793FE052000F0DE
:1007D00036F9D020FFF762FFFFF7E1FE052000F0B9
:1007E0002EF92046FFF75AFFFFF7D9FE052000F04B
:1007F00026F92846FFF752FFFFF7D1FE052000F04B
:100800001EF9FFF7A2FE70BD70B504460025FFF784
:1008100070FED020FFF742FFFFF7C1FE052000F079
:100820000EF92046FFF73AFFFFF7B9FE052000F06A
:1008300006F9FFF75EFED120FFF730FFFFF7AFFEAE
:10084000052000F0FCF80120FFF761FF0546FFF7E7
:100850007CFE284670BD10B5FFF732FE00210E2049
:10086000FFF7AFFF022000F00CF900210F20FFF787
:10087000A8FF022000F005F910BD10B50620FFF713
:10088000C3FF5049C8700520FFF7BEFF4D490871EE
:100890000420FFF7B9FF4B4948710220FFF7B4FF6E
:1008A000484908700120FFF7AFFF46494870002013
:1008B000FFF7AAFF4349887010BD2DE9F0470446B1
:1008C0000D4616461F46DDE908894FF0000A20460E
:1008D000FFF767FF00F0FF0A51460620FFF771FFA0
:1008E0002846FFF75EFF00F0FF0A51460520FFF79C
:1008F00068FF3046FFF755FF00F0FF0A514604201D
:10090000FFF75FFF3846FFF74CFF00F0FF0A514644
:100910000220FFF756FF4046FFF743FF00F0FF0AB3
:1009200051460120FFF74DFF4846FFF73AFF00F020
:10093000FF0A51460020FFF744FFBDE8F08710B5DD
:100940000620FFF761FF1F49C870C878FFF71EFF38
:100950001C49C8700520FFF757FF1A49087108792C
:10096000FFF714FF174908710420FFF74DFF1549E1
:1009700048714879FFF70AFF124948710220FFF7D2
:1009800043FF104908700846007800F03F000870E7
:100990000878FFF7FBFE0B4908700120FFF734FFD2
:1009A000084948704878FFF7F1FE06494870002072
:1009B000FFF72AFF034988708878FFF7E7FE0149AF
:1009C000887010BD1400002008B50121482000F0F7
:1009D000C5FC2020ADF8000010208DF80300032096
:1009E0008DF802006946094800F00EFA20210748F8
:1009F00000F0B2FA2020ADF800006946044800F08B
:100A000003FA2021024800F0A7FA08BD000C0140BB
:100A10000018014010B56FF0040000F077F92A4883
:100A200000682A49B0FBF1F02949087008460078AF
:100A30004FF47A7148432649891C088010BD244A26
:100A4000127842434FF0E0235A6100229A611A461D
:100A5000126942F001021A6100BF4FF0E0221169F1
:100A600011F0010F02D011F4803FF6D04FF0E022D8
:100A7000126922F001024FF0E0231A6100229A610C
:100A80007047134A921C128842434FF0E0235A6188
:100A900000229A611A46126942F001021A6100BFEF
:100AA0004FF0E022116911F0010F02D011F4803FE4
:100AB000F6D04FF0E022126922F001024FF0E0235D
:100AC0001A6100229A6170470000002000127A002B
:100AD0001C00002010B54FF4A06000F0C5F810BD58
:100AE000014600BF704700BF4B4A128812F0400F0A
:100AF000FAD0C2B2484B1B1D1A80704710B586B0A1
:100B00000446012144F2040000F028FC424800F0B1
:100B100087FC4FF40070ADF8140003208DF8160028
:100B200018208DF8170005A93C4800F06DF94FF426
:100B30008060ADF8140004208DF8170005A937482F
:100B400000F062F925208DF8000003208DF80100E7
:100B50008DF8020001208DF80300684600F089F846
:100B600001940020ADF80800ADF80A00ADF80C00C3
:100B7000ADF810000C20ADF80E0001A9264800F0D9
:100B800092FC012240F22551234800F023FD01216F
:100B9000214800F013FD06B010BD10B540F22551FC
:100BA0001D4800F0FEFD002834D01B4800F079FD00
:100BB000C4B21B48008810F4004F2BD1184800889D
:100BC00010F4804F0CD00A2C03D000201449088068
:100BD00020E01348008840F400401149088019E0E3
:100BE0000D2C06D10E48008840F480400C49088046
:100BF00010E00B480088C0F30D000A490C54084867
:100C00000088401C0649088008460088C72801DD86
:100C10000020088010BD000000380140000801409D
:100C2000200000207401002009488047094800473F
:100C3000FEE7FEE7FEE7FEE7FEE7FEE7FEE7FEE78C
:100C4000FEE7FEE704480549054A064B70470000E9
:100C5000C103000831010008A0020020A008002004
:100C6000A0040020A004002032490143324A116050
:100C7000704770B5002100230F22C4780CB32E4CAE
:100C8000246804F4E064C4F5E064210AC1F10403BB
:100C9000CA40447804FA03F18478144021430901DE
:100CA000264C0678A155047804F01F050124AC40B9
:100CB00005786D114FF0E02606EB8505C5F800417B
:100CC00009E0047804F01F040125A5401C4C0678B7
:100CD000761144F8265070BD1A4A0A400243164B5A
:100CE0001B1F1A60704741B1134A121D126802435C
:100CF0004FF0E023C3F8102D07E00F4A121D1268D1
:100D000082434FF0E023C3F8102D7047042808D128
:100D10004FF0E021096941F004014FF0E022116138
:100D200007E04FF0E021096921F004014FF0E022D3
:100D3000116170470000FA050CED00E000E400E0EE
:100D400080E100E080FFFF1F10B50446C7488442E1
:100D500008D10121042000F01BFB0021042000F039
:100D600017FB46E0C248844208D10121082000F068
:100D70000FFB0021082000F00BFB3AE0BD48844245
:100D800008D10121102000F003FB0021102000F009
:100D9000FFFA2EE0B848844208D10121202000F05B
:100DA000F7FA0021202000F0F3FA22E0B348844251
:100DB00008D10121402000F0EBFA0021402000F092
:100DC000E7FA16E0AE48844208D10121802000F005
:100DD000DFFA0021802000F0DBFA0AE0A948844213
:100DE00007D10121801500F0D3FA0021A01500F0F1
:100DF000CFFA10BD10B50121084600F0C9FA002154
:100E0000012000F0C5FA10BDF0B500220023002437
:100E100000250026002791F803C00CF00F0291F87E
:100E200003C01CF0100F03D091F802C04CEA02027C
:100E3000B1F800C01CF0FF0F31D0066800242BE091
:100E40004FF0010C0CFA04F5B1F800C00CEA0503F0
:100E5000AB4220D1A5004FF00F0C0CFA05F7BE43B2
:100E600002FA05FC4CEA060691F803C0BCF1280F13
:100E700006D14FF0010C0CFA04FCC0F814C00AE0D3
:100E800091F803C0BCF1480F05D14FF0010C0CFAEA
:100E900004FCC0F810C0641C082CD1D30660B1F863
:100EA00000C0BCF1FF0F34DD466800242EE004F1E1
:100EB000080C4FF0010E0EFA0CF5B1F800C00CEA68
:100EC0000503AB4221D1A5004FF00F0C0CFA05F73A
:100ED000BE4302FA05FC4CEA060691F803C0BCF1D9
:100EE000280F05D104F1080C0EFA0CFEC0F814E02E
:100EF00091F803C0BCF1480F07D104F1080C4FF082
:100F0000010E0EFA0CFEC0F810E0641C082CCED3C3
:100F10004660F0BD4FF6FF7101800221817004210F
:100F2000C17070470246002093680B4201D0012037
:100F300000E0002070470146886880B27047024692
:100F40000020D3680B4201D0012000E00020704750
:100F50000146C86880B270470161704741617047BF
:100F60000AB1016100E041617047C16070474FF410
:100F700080320A438261816182618269826970473D
:100F80000022414B1A684FF680731A4042EA001261
:100F90000A433D4B1A6070473C49C8617047F0B541
:100FA000002200230024002500F00046B6F1004F87
:100FB00002D1354EF46901E0334E7468C0F3034545
:100FC00082B200F44016B6F5401F08D124F07064D8
:100FD0002D4E766826F070662B4F7E6012E000F48E
:100FE0008016B6F5801F06D1032606FA05F39C434A
:100FF00044F0706406E0460D360102FA06F6B4438A
:1010000044F0706421B1460D360102FA06F634430D
:1010100000F00046B6F1004F02D11B4EF46101E032
:10102000194E7460F0BD30B500228B071C0F0F23E2
:1010300003FA04F2144B08338C1053F82440944301
:101040008D1043F825408C1053F824308C07240F62
:1010500000FA04F423430C4C08348D1044F8253076
:1010600030BD0A49DC3108607047000000080140CB
:10107000000C014000100140001401400018014024
:10108000001C0140002001400000014000002042FF
:10109000DB48006840F00100D94908600846406814
:1010A000D8490840D649486008460068D6490840F3
:1010B000D34908600846006820F48020086008468C
:1010C000406820F4FE0048604FF41F0088607047BD
:1010D000CB49096821F48031C94A11601146096879
:1010E00021F480211160B0F5803F03D0B0F5802F4E
:1010F0000ED106E0C249096841F48031C04A11604E
:1011000007E0BF49096841F4A021BD4A116000E031
:1011100000BF00BF704710B5014600220023002029
:101120004A11012A02D1B64C236806E0022A02D1F4
:10113000B34C236A01E0B24C636A01F01F02012440
:1011400094401C4201D0012000E0002010BD70B589
:1011500000240025002600BF3120FFF7DCFF0646F3
:10116000641CB4F5A06F01D0002EF5D03120FFF73C
:10117000D2FF08B1012500E00025284670BD0021FE
:101180009F4A116821F0F80141EAC00111607047DF
:101190009E49086070470022994B5A6822F47C12DD
:1011A00040EA01031A43964B5A6070479749086614
:1011B00070470021924A516821F0030101435160B8
:1011C00070478F48406800F00C00704700218C4A3F
:1011D000516821F0F0010143516070470021884AB5
:1011E000516821F4E0610143516070470021844A55
:1011F000516821F4605141EAC0015160704729B142
:101200007F4A527A02437E4B5A7206E07C4A527AF7
:10121000C343DBB21A407A4B5A7270477B49D831CC
:10122000086070470021764A516821F4404101432B
:10123000516070470021724A20321170704A82F862
:101240002010012802D004280AD104E001216C4AB0
:101250002032117005E00521694A2032117000E04A
:1012600000BF00BF70476A49086070476449096A57
:101270000143634A11627047654944390860704709
:1012800030B500210022002300245D4D6D6805F07B
:101290000C0121B1042905D0082923D105E05D4DB9
:1012A000056022E05B4D05601FE0554D6D6805F45B
:1012B0007012534D6D6805F48033022505EB9242A0
:1012C0001BB9554D554305600BE04D4D6D6815F448
:1012D000003F03D0504D5543056002E04D4D55434E
:1012E000056002E04B4D056000BF00BF444D6D68D6
:1012F00005F0F0010909494D6C5C0568E540456061
:101300003F4D6D6805F4E061090A444D6C5C456829
:10131000E54085603A4D6D6805F46051C90A3F4D5E
:101320006C5C4568E540C560354D6D6805F440412D
:10133000890B3A4D10356C5CC568B5FBF4F5056159
:1013400030BD29B12E4A526902432D4B5A6104E047
:101350002B4A526982432A4B5A61704729B1284A65
:1013600092690243264B9A6104E0254A92698243BE
:10137000234B9A61704729B1214AD2690243204B1D
:10138000DA6104E01E4AD26982431D4BDA6170477C
:1013900029B11B4AD2680243194BDA6004E0184AAB
:1013A000D2688243164BDA60704729B1144A126939
:1013B0000243134B1A6104E0114A12698243104B35
:1013C0001A61704712494039086070470F49C86474
:1013D00070470B49C87170470948406A40F08070F7
:1013E00007494862704701460020054A92680A4250
:1013F00001D0012000E00020704701498872704749
:10140000001002400000FFF8FFFFF6FE000042421D
:101410008004424200127A0000093D0028000020AA
:1014200010B50446FB48844209D101218803FFF727
:10143000AFFF00214FF48040FFF7AAFF32E0F648EB
:10144000844209D101214804FFF7AFFF00214FF486
:101450000030FFF7AAFF25E0F048844209D10121BE
:101460008804FFF7A2FF00214FF48020FFF79DFFC3
:1014700018E0EB48844209D10121C804FFF795FF29
:1014800000214FF40020FFF790FF0BE0E548844275
:1014900008D101210805FFF788FF00214FF48010D3
:1014A000FFF783FF10BD2DE9F04786B004460D46D7
:1014B0000026002700BFB146B246A88900B100BF90
:1014C000A246268A4CF6FF700640E888064326822C
:1014D000A6894EF6F3100640A88829890843698931
:1014E00008430643A681A68A4FF6FF400640A88916
:1014F0000643A68201A8FFF7C3FE5446C5488245AD
:1015000001D1049F00E0039FA08910F4004F08D090
:1015100007EBC70000EB071029684900B0FBF1F8A2
:1015200007E007EBC70000EB071029688900B0FB54
:10153000F1F86420B8FBF0F006013009642101FBEA
:101540001089A08910F4004F09D0322101EBC900A5
:101550006421B0FBF1F000F00700064308E03221FF
:1015600001EB09106421B0FBF1F000F00F0006431D
:10157000268106B0BDE8F0874FF4165101600021C6
:101580008180C18001810C214181002181817047CE
:1015900010B50022028A4FF2FF031A400B884C88D4
:1015A00023438C882343CC8823431A43028210BDF3
:1015B0000021018041808180C180704721B18289F2
:1015C00042F40052828104E082894DF6FF731A4092
:1015D00082817047F0B50024002500260023A1F584
:1015E00010676A3F00D100BF0346C1F3421401F007
:1015F0001F05012707FA05F6012C01D10C3304E081
:10160000022C01D1103300E014331AB11F683743A4
:101610001F6002E01F68B7431F60F0BD10B51AB12C
:10162000838A0B43838204E0838ACC43A4B22340A1
:10163000838210BD028A4FF6F0731A400282028A3A
:101640000A430282704782894FF2FF731A408281F7
:1016500082890A438281704721B1828942F0020265
:10166000828104E082894FF6FD731A4082817047BF
:10167000028A4FF6DF731A400282028A0A4302820C
:10168000704721B1028A42F48042028204E0028A59
:101690004BF6FF731A4002827047C1F30802828042
:1016A000704701468888C0F308007047818941F07F
:1016B000010181817047028BD2B20283028B42EA20
:1016C000012202837047028B02F47F420283028B65
:1016D0000A430283704721B1828A42F0200282824B
:1016E00004E0828A4FF6DF731A408282704721B18C
:1016F000828A42F01002828204E0828A4FF6EF73FF
:101700001A408282704721B1828A42F008028282A6
:1017100004E0828A4FF6F7731A408282704721B143
:10172000828942F40042828103E08289C2F30E0280
:101730008281704721B1828A42F40062828204E091
:10174000828A4FF2FF731A4082827047828A4FF674
:10175000FB731A408282828A0A438282704721B1D7
:10176000828A42F00202828204E0828A4FF6FD738E
:101770001A408282704702460020B1F5007F00D1F6
:1017800000BF13880B4201D0012000E00020704709
:1017900001F40072B2F5007F00D100BFCA4302809D
:1017A000704770B502460023002400250020A1F5F3
:1017B00010666A3E00D100BFC1F3421501F01F045C
:1017C000012606FA04F4012D02D19689344006E080
:1017D000022D02D1168A344001E0968A34400B1261
:1017E000012606FA03F31688334014B10BB1012029
:1017F00000E0002070BD10B500220023A1F51064A8
:101800006A3C00D100BF0A1201249440A3B2DC4319
:10181000048010BD003801400044004000480040F2
:10182000004C00400050004010B50446FF48844280
:1018300008D10121C014FFF7ABFD0021E014FFF730
:10184000A7FDC4E0B4F1804F08D101210846FFF79D
:10185000ACFD00210120FFF7A8FDB8E0F448844268
:1018600008D101210220FFF7A0FD00210220FFF78F
:101870009CFDACE0EF48844208D101210420FFF731
:1018800094FD00210420FFF790FDA0E0EA48844287
:1018900008D101210820FFF788FD00210820FFF76B
:1018A00084FD94E0E548844208D101211020FFF72F
:1018B0007CFD00211020FFF778FD88E0E04884429D
:1018C00008D101212020FFF770FD00212020FFF723
:1018D0006CFD7CE0DB48844208D101214014FFF715
:1018E00057FD00216014FFF753FD70E0D648844295
:1018F00009D10121C804FFF74BFD00214FF400205E
:10190000FFF746FD63E0D148844209D10121080573
:10191000FFF73EFD00214FF48010FFF739FD56E040
:10192000CB48844209D101214805FFF731FD002150
:101930004FF40010FFF72CFD49E0C648844208D15F
:1019400001214020FFF731FD00214020FFF72DFD50
:101950003DE0C148844208D101218020FFF725FDE8
:1019600000218020FFF721FD31E0BC48844208D1EE
:1019700001218015FFF719FD0021A015FFF715FDC6
:1019800025E0B748844209D101210804FFF700FD92
:1019900000214FF48030FFF7FBFC18E0B14884428F
:1019A00009D101214804FFF7F3FC00214FF4003076
:1019B000FFF7EEFC0BE0AC48844208D1012188041B
:1019C000FFF7E6FC00214FF48020FFF7E1FC10BD9B
:1019D00000220288954B98420ED09A4B98420BD029
:1019E000B0F1804F08D0924B984205D0914B98426D
:1019F00002D0914B984204D14FF68F731A404B8816
:101A00001A438E4B984207D08D4B984204D04FF624
:101A1000FF431A40CB881A4302808B8883850B884A
:101A20000385824B98420BD0864B984208D08C4B52
:101A3000984205D08B4B984202D08B4B984201D1F3
:101A40000B7A038601238382704770B5002200233E
:101A50000024058C4FF6FE7635400584038C84887F
:101A6000028B4FF68F752A40B51E2A400D882A43F7
:101A7000751E2B400D892B434D882B436B4DA8427F
:101A80000BD0704DA84208D0754DA84205D0754DB9
:101A9000A84202D0744DA84213D14FF6F7752B40DF
:101AA0004D892B434FF6FB752B408D882B434FF60A
:101AB000FF652C404FF6FF552C408D892C43CD8976
:101AC0002C4384800283CD888586038470BD70B5E5
:101AD000002200230024058C4FF6EF763540058464
:101AE000038C8488028B48F6FF752A404FF6FF4529
:101AF0002A400D882D0642EA15424FF6DF752B402D
:101B00000D892D0543EA15434D882D0543EA1543FC
:101B1000464DA84202D04B4DA8421BD14FF67F75CF
:101B20002B404D892D0543EA15434FF6BF752B40D9
:101B30008D882D0543EA15434FF6FF352C404FF2B3
:101B4000FF752C408D89AD0444EA1544CD89AD0460
:101B500044EA154484800283CD880587038470BDE0
:101B600070B5002200230024058C4FF6FF66354037
:101B70000584038C8488828B4FF68F752A404FF63C
:101B8000FC752A400D882A434FF6FF552B400D89DE
:101B90002D0643EA15434D882D0643EA1543234D90
:101BA000A84202D0274DA8421BD14FF2FF752B400F
:101BB0004D892D0643EA15434FF6FF352B408D889E
:101BC0002D0643EA15434EF6FF752C404DF6FF7582
:101BD0002C408D892D0544EA1544CD892D0544EA14
:101BE000154484808283CD888587038470BD70B559
:101BF000002200230024058C4EF6FF763540058434
:101C0000038C8488828B48F6FF752A404FF6FF4587
:101C10002A400D882D0642EA15424DF6FF752B40ED
:101C20000D892D0743EA15434D881FE0002C014024
:101C30000004004000080040000C0040001000407C
:101C40000014004000340140004C014000500140AD
:101C50000054014000180040001C004000200040DB
:101C60000040014000440140004801402D0743EA84
:101C70001543F84DA84202D0F74DA84206D14BF6C5
:101C8000FF752C408D89AD0544EA1544848082831C
:101C9000CD88A0F84050038470BD828B4FF2FF3393
:101CA0001A408283828B0B0642EA1342828370477A
:101CB000F0B5002400250026078C4EF6FF7C07EACD
:101CC0000C070784848B058C0F073E0C40F6FF47FA
:101CD0003C40170644EA17441F0744EA1744DD4F07
:101CE000B8420ED0DC4FB8420BD0B0F1804F08D0D4
:101CF000DA4FB84205D0DA4FB84202D0D94FB842D5
:101D000006D14DF6FF773D4046F480573D4305E050
:101D100047F6FF573D4041F480573D438483058497
:101D2000F0BD828B4FF6F3731A408283828B0A4395
:101D300082837047F0B5002400250026078C4FF6FB
:101D4000FF6C07EA0C070784848B058C0F063E0C9A
:101D50004FF60C773C401F0542EA17473C43BD4F06
:101D6000B8420ED0BC4FB8420BD0B0F1804F08D073
:101D7000BA4FB84205D0BA4FB84202D0B94FB842B4
:101D800006D14FF6FF573D4046F480773D4305E0CE
:101D90004FF2FF573D4041F480773D4384830584F3
:101DA000F0BD028B4FF2FF331A400283028B0B0609
:101DB00042EA134202837047F0B500240025002652
:101DC000078C4FF6EF7C07EA0C070784048B058C21
:101DD0000F053E0C40F6FF473C401F0744EA1744FE
:101DE000170644EA17449B4FB8420ED09A4FB842A8
:101DF0000BD0B0F1804F08D0984FB84205D0984F23
:101E0000B84202D0974FB84206D14FF6DF773D4037
:101E100046F010073D4305E04FF65F773D4041F047
:101E200010073D4304830584F0BD028B4FF6F37326
:101E30001A400283028B0A4302837047F0B50024E4
:101E40000025068C4FF6FE773E400684048B058CF9
:101E50004FF60C7634401E0542EA164634437D4E5A
:101E6000B0420ED07C4EB0420BD0B0F1804F08D0C3
:101E70007A4EB04205D07A4EB04202D0794EB0428E
:101E800006D14FF6FD76354041F00106354305E0B9
:101E90004FF6F576354041F001063543048305845D
:101EA000F0BD70B504460D466A4884420ED06A48BB
:101EB00084420BD0B4F1804F08D06848844205D0EA
:101EC0006748844202D06748844200D100E000BFE6
:101ED000288850B92B89AA8869882046FFF7AEFF69
:101EE000E9882046FFF7A1FF25E0288804280AD1C9
:101EF0002B89AA8869882046FFF75EFFE98820467B
:101F0000FFF74FFF17E0288808280AD12B89AA88F5
:101F100069882046FFF70EFFE9882046FFF701FF9A
:101F200009E02B89AA8869882046FFF7C1FEE98865
:101F30002046FFF7B2FE70BD2DE9F04104460D4684
:101F400000260127688808B9022600E00026A88834
:101F5000012801D1022700E001272888A0B92B8998
:101F6000AA8869882046FFF769FFE9882046FFF7BD
:101F70005CFF2B893A4631462046FFF71DFFE98872
:101F80002046FFF70EFF13E02B89AA8869882046B8
:101F9000FFF712FFE9882046FFF703FF2B893A4637
:101FA00031462046FFF74AFFE9882046FFF73DFF0C
:101FB000BDE8F0810A884B881A438B881A43CB8886
:101FC0001A430B891A434B891A438B891A43A0F889
:101FD000442070474FF6FF71818000210180C1804D
:101FE0004180017270470021018041808180C18061
:101FF000018141818181C18170470021018041803F
:10200000012181800021C180018170470021018070
:1020100041808180C180018141818181704721B1EE
:10202000028842F00102028004E002884FF6FE734B
:102030001A400280704731B1B0F8442042F40042A7
:10204000A0F8442005E0B0F84420C2F30E02A0F846
:1020500044207047002C014000340140000400403F
:1020600000080040000C004010B51AB183890B43F2
:10207000838104E08389CC43A4B22340838110BDD3
:102080008182704741EA0203A0F84830704710B5DA
:102090001AB183890B43838104E08389CC43A4B2C2
:1020A0002340838110BD01894FF6F87211400181F0
:1020B0007047002202894FF68F731A400A4302814B
:1020C000704730B504460D4629462046FFF7F1FF1C
:1020D000208940F00700208130BD2DE9F041044601
:1020E0000D4616461F46602D06D13B46012231465D
:1020F0002046FFF761FE05E03B46012231462046BF
:10210000FFF79CFE29462046FFF7D3FF208940F0C9
:1021100007002081BDE8F08130B500240489E4B2D5
:102120001D0642EA15450D432C43048130BD2DE9BF
:10213000F04104460D46164698460027434632466F
:1021400029462046FFF7E8FF27894FF6F870074039
:1021500047F007074FF68F70074047F07007278159
:10216000BDE8F081F0B504460D4616461F463B46D5
:10217000324629462046FFF7CFFF208940F48040B1
:102180002081F0BD018582827047002202884FF6CF
:102190008F731A400A4302807047F0B5002400256F
:1021A00000260489058B068C4FF6F8773C400C43DB
:1021B0004FF6FC473D4040F201173D434FF6DD77B7
:1021C0003E401F0542EA17473E43048105830684CB
:1021D000F0BD0022028B4FF68F731A400A43028330
:1021E00070470022028B48F6FF731A400B0642EA42
:1021F0001342028370470022828B4FF68F731A407E
:102200000A43828370470022828B48F6FF731A408C
:102210000B0642EA13428283704721B1028842F0E2
:102220008002028004E002884FF67F731A40028029
:10223000704721B1828842F00402828004E08288E3
:102240004FF6FB731A408280704721B1828842F0BA
:102250000802828004E082884FF6F7731A40828079
:10226000704721B1828842F00102828004E08288B6
:102270004FF6FE731A40828070470022028B4FF6A1
:10228000F7731A400A43028370470022028B4FF211
:10229000FF731A400B0642EA134202837047002282
:1022A000828B4FF6F7731A400A43828370470022ED
:1022B000828B4FF2FF731A400B0642EA134282836D
:1022C00070470022028B4FF6FB731A400A430283C9
:1022D00070470022028B4FF6FF331A400B0642EA8A
:1022E0001342028370470022828B4FF6FB731A4021
:1022F0000A43828370470022828B4FF6FF331A40D5
:102300000B0642EA1342828370470022028B4FF68B
:102310007F731A400A43028370470022028BC2F384
:102320000E020B0642EA1342028370470022828BA0
:102330004FF67F731A400A43828370470022828BD4
:10234000C2F30E020B0642EA134282837047002258
:10235000028C4FF6FD731A400A4302847047002234
:10236000028C4FF6F7731A400A430284704700222A
:10237000028C4FF6DF731A400B0542EA13420284C7
:1023800070470022028C4FF67F731A400B0542EA19
:102390001342028470470022028C4FF6FF531A400A
:1023A0000B0642EA1342028470470022028C4FF26D
:1023B000FF731A400B0642EA134202847047002260
:1023C000028C4DF6FF731A400B0742EA1342028457
:1023D000704730B5002301248C40A3B2048CDD4348
:1023E000ADB22C400484048C02FA01F5ADB22C434A
:1023F000048430BD30B5002304248C40A3B2048C87
:10240000DD43ADB22C400484048C02FA01F5ADB278
:102410002C43048430BD70B50023002403461846C5
:10242000183301258D40ACB2058CE643B6B2354079
:10243000058409B1082909D103EB61031D6825F062
:1024400070051D601D6815431D600CE00D1FADB2C9
:1024500003EB65031D6825F4E0451D601D68160645
:1024600045EA16451D6070BD21B1028842F00202A6
:10247000028004E002884FF6FD731A400280704724
:1024800021B1028842F00402028004E002884FF683
:10249000FB731A400280704721B1828842F08002AB
:1024A000828004E082884FF67F731A4082807047F2
:1024B00002884FF6F7731A40028002880A430280AE
:1024C000704782884FF68F731A40828082880A4351
:1024D0008280704702894FF6F8731A4002810289A0
:1024E0000A430281704702894FF67F731A400281C6
:1024F00002890A4302817047818470478185704751
:10250000818670470187704781877047A0F8401027
:10251000704702884FF6FF431A40028002880A4340
:10252000028070470146888E70470146088F7047C9
:102530000146888F70470146B1F840007047014658
:10254000888C70470146088D704702460020138A28
:102550000B4201D0012000E000207047CA430282F4
:10256000704730B50246002000230024158A05EA92
:102570000103958905EA010413B10CB1012000E0C3
:10258000002030BDCA4302827047000010B58CB0F5
:1025900004461E230BAA03A9204600F0AEFE0090BD
:1025A000009810B101200CB010BD9DF82C0004441F
:1025B00000200B900EE052489DF82C2050F822107D
:1025C00003A800F0F1FD00B908E09DF82C00401CC4
:1025D000C0B20B909DF82C000728ECD300BF9DF8EB
:1025E0002C0007287DD2DFE800F004053C5E8988D6
:1025F000870000BF43A001F0B7F843A001F0B4F892
:1026000051A001F0B1F860A001F0AEF86EA001F0A9
:10261000ABF87DA001F0A8F88BA001F0A5F898A078
:1026200001F0A2F89DA001F09FF8A2A001F09CF893
:10263000A6A001F099F8ABA001F096F8B0A001F0C7
:1026400093F8B6A001F090F8C2A001F08DF8CFA0E9
:1026500001F08AF8DAA001F087F8E6A001F084F82A
:10266000C8E228A001F080F8F2A001F07DF8002077
:102670000B900EE0FF4800689DF82C2000EBC20094
:102680004168FDA001F070F89DF82C00401CC0B21C
:102690000B90F848007D9DF82C108842EADC19A0C8
:1026A00001F062F8A6E217A001F05EF8F4A001F0D4
:1026B0005BF800200B901CE0EE4909689DF82C2087
:1026C00001EBC20101AB02AA486803A900F03AFE7F
:1026D000E84800689DF82C1050F8312003A9F8A0B4
:1026E00000E085E201F040F89DF82C00401CC0B2EB
:1026F0000B90E048007DEDE14DE221E2F4E10000C5
:102700003C0000200D0A00002D2D2D2D2D2D2D2DEE
:102710002D2D2D2D2D2D2D2D2D2D2D2D2D2D2D2DE9
:1027200055534D4152542056332E312D2D2D2D2DE4
:102730002D2D2D2D2D2D2D2D2D2D2D2D2D2D2D2DC9
:102740002D2D2D200D0A00002020202055534D4115
:102750005254CAC7D3C9414C49454E54454BBFAAF0
:10276000B7A2B5C4D2BBB8F6C1E9C7C9B5C4B4AE47
:10277000BFDAB5F7CAD4BBA5BDBBD7E9BCFE2CCD2B
:10278000A8B9FD200D0A0000CBFC2CC4E3BFC9D2C0
:10279000D4CDA8B9FDB4AEBFDAD6FACAD6B5F7D350
:1027A000C3B3CCD0F2C0EFC3E6B5C4C8CEBACEBA7C
:1027B000AFCAFD2CB2A2D6B4D0D02ED2F2B4CB2C5C
:1027C000C4E3BFC90D0A0000D2D4CBE6D2E2B8FC04
:1027D000B8C4BAAFCAFDB5C4CAE4C8EBB2CECAFD2C
:1027E00028D6A7B3D6CAFDD7D62831302F3136BD6B
:1027F000F8D6C629A1A2D7D6B7FBB4AEA1A2BAAF6C
:10280000CAFDC8EB0D0A0000BFDAB5D8D6B7B5C807
:10281000D7F7CEAAB2CECAFD292CB5A5B8F6BAAF65
:10282000CAFDD7EEB6E0D6A7B3D63130B8F6CAE4C3
:10283000C8EBB2CECAFD2CB2A2D6A7B3D6BAAFCAE5
:10284000FDB7B5200D0A0000BBD8D6B5CFD4CABE9F
:102850002ED0C2D4F6B2CECAFDCFD4CABEBDF8D6F1
:10286000C6C9E8D6C3B9A6C4DC2CD0C2D4F6BDF81C
:10287000D6C6D7AABBBBB9A6C4DC2E0D0A00000081
:10288000BCBCCAF5D6A7B3D63A7777772E6F7065FA
:102890006E6564762E636F6D0D0A000055534D41D1
:1028A0005254D3D037B8F6CFB5CDB3C3FCC1EE3A4E
:1028B0000D0A00003F3A202020202020BBF1C8A1B3
:1028C000B0EFD6FAD0C5CFA20D0A000068656C70D3
:1028D0003A202020BBF1C8A1B0EFD6FAD0C5CFA2D4
:1028E0000D0A00006C6973743A202020BFC9D3C35D
:1028F000B5C4BAAFCAFDC1D0B1ED0D0A0A000000DF
:1029000069643A2020202020BFC9D3C3BAAFCAFDD2
:10291000B5C44944C1D0B1ED0D0A0A006865783AE2
:1029200020202020B2CECAFD3136BDF8D6C6CFD485
:10293000CABE2CBAF3B8FABFD5B8F12BCAFDD7D6A8
:10294000BCB4D6B4D0D0BDF8D6C6D7AABBBB0D0A8E
:102950000A0000006465633A20202020B2CECAFD40
:102960003130BDF8D6C6CFD4CABE2CBAF3B8FABF40
:10297000D5B8F12BCAFDD7D6BCB4D6B4D0D0BDF8EB
:10298000D6C6D7AABBBB0D0A0A00000072756E74CA
:10299000696D653A312CBFAAC6F4BAAFCAFDD4CB73
:1029A000D0D0BCC6CAB13B302CB9D8B1D5BAAFCAA9
:1029B000FDD4CBD0D0BCC6CAB13B0D0A0A00000082
:1029C000C7EBB0B4D5D5B3CCD0F2B1E0D0B4B8F148
:1029D000CABDCAE4C8EBBAAFCAFDC3FBBCB0B2CE35
:1029E000CAFDB2A2D2D4BBD8B3B5BCFCBDE1CAF813
:1029F0002E0D0A002D2D2D2D2D2D2D2D2D2D2D2D76
:102A00002D2D2D2D2D2D2D2D2D2D2D2D2D2D414CC3
:102A100049454E54454B2D2D2D2D2D2D2D2D2D2D34
:102A20002D2D2D2D2D2D2D2D2D2D2D2D2D2D2D20E3
:102A30000D0A00002D2D2D2D2D2D2D2D2D2D2D2D63
:102A40002D2D2D2D2D2D2D2D2D2D2D2D2DBAAFCA0A
:102A5000FDC7E5B5A52D2D2D2D2D2D2D2D2D2D2D84
:102A60002D2D2D2D2D2D2D2D2D2D2D2D2D2D2D2D96
:102A7000200D0A008000002025730D0A00000000D0
:102A80002D2D2D2D2D2D2D2D2D2D2D2D2D2D2D2D76
:102A90002D2D2D2D2D2D2D2D2DBAAFCAFD204944C4
:102AA000202D2D2D2D2D2D2D2D2D2D2D2D2D2D2D63
:102AB0002D2D2D2D2D2D2D2D2D2D2D2D200D0A00C3
:102AC00025732069642069733A0D0A30582530381F
:102AD000580D0A009DF82C1088423FF7EDADAFF27B
:102AE000DC3000F041FE85E0AFF2E83000F03CFE63
:102AF0000BAA03A9204600F031FD9DF82C00C8B9AF
:102B0000694603A800F083FB0B909DF82C0020B9C8
:102B1000F8A0009900F028FE0EE09DF82C00042893
:102B200001D002203FE5F6A000F01EFE0120F94989
:102B3000C87501E0022036E5F0A000F015FE59E06E
:102B4000EEA000F011FE0BAA03A9204600F006FD3E
:102B50009DF82C00C8B9694603A800F058FB0B90FB
:102B60009DF82C0020B9ECA0009900F0FDFD0EE0CE
:102B70009DF82C00042801D0022014E5E9A000F003
:102B8000F3FD0020E349C87501E002200BE5DBA05E
:102B900000F0EAFD2EE0D9A000F0E6FD0BAA03A9A3
:102BA000204600F0DBFC9DF82C0000281AD1694675
:102BB00003A800F02CFB0B909DF82C0080B900BFFF
:102BC000D449009881F8EC00084690F8EC0018B160
:102BD000D9A000F0C9FD07E0DEA000F0C5FD03E0CC
:102BE0000220E0E40220DEE4C4A000F0BDFD01E02C
:102BF0000120D8E400BF0020D5E44FF08040008AD7
:102C000020F001004FF0804108824FF6FF70888568
:102C100000208884BF49C1F8F00070474FF0804021
:102C2000008A10F0010F08D0BA48D0F8F0004FF633
:102C3000FF710844B749C1F8F000B648D0F8F00079
:102C40004FF08041898C0844B249C1F8F000084631
:102C5000D0F8F000704710B54FF08040008A10F0B7
:102C6000010F09D0AB490869804700204FF080412F
:102C700088844FF47A7088854FF08040008A20F075
:102C800001004FF08041088210BD7FB504460D461B
:102C900001210846FEF76FFBADF80840ADF804507F
:102CA0000020ADF80A00ADF8060001A94FF0804001
:102CB000FEF78EFE012241218807FFF7D5F91C207F
:102CC0008DF8000003208DF801008DF8020001202E
:102CD0008DF803006846FDF7CCFF01218807FFF758
:102CE0009EF97FBD10B5044604EBC40000EB041050
:102CF0000122C2EB800081B24FF47A70FFF7C5FF6A
:102D000001208449C87510BD30B595B0044613AB99
:102D100012AA09A9204600F015FB054615B1284660
:102D200015B030BD0020149026E07A4909689DF85E
:102D3000502001EBC20113AB11AA486801A900F0B1
:102D400001FB05460DB12846EAE709A901A800F0F4
:102D50002BFA60B99DF844009DF84810884201DDC7
:102D60000220DDE79DF850006A4988750AE09DF869
:102D70005000401CC0B214906648007D9DF8501071
:102D80008842D2DC00BF6348007D9DF85010884225
:102D900001D10420C4E714A9204600F04FFC0546E9
:102DA0000DB12846BCE79DF850005A4948750020EF
:102DB000B6E72DE9F0419AB05648847D007DA042E7
:102DC00002DC1AB0BDE8F0815249096801EBC40188
:102DD00006AB07AA486808A900F0B4FA08A964A0DD
:102DE00000F0C2FC002544E04A48018B0120A840C5
:102DF00001421BD0222160A000F0B6FC284600F062
:102E000010FC44492431471839465CA000F0ACFC62
:102E1000222159A000F0A8FC284600F002FC3D4900
:102E20002431084410A941F8250018E0284600F094
:102E3000F8FB38492431085810A941F825003548D5
:102E4000C07D30B910A850F825104DA000F08CFCC2
:102E500005E010A850F825104AA000F085FC9DF868
:102E60001C00401EA84202D048A000F07DFC681C57
:102E7000C5B29DF81C008542B6DB45A000F074FC8D
:102E8000FFF7BBFE2348407D0B280DD2DFE800F0A2
:102E9000060D151E27828F9EADBCCD001D49096809
:102EA00051F8340080470646D2E01A4A126852F8B8
:102EB0003410109888470646CAE0164B1B6853F832
:102EC0003420DDE9100190470646C1E0114F3F680C
:102ED00057F8343010A807C898470646B8E0DFF81E
:102EE00034C0DCF800C05CF8347010A80FC8B847D4
:102EF0000646ADE04845583A305825580D0A0000BE
:102F00003136BDF8D6C6B2CECAFDCFD4CABE210D69
:102F10000A000000800000204445433A256C750DEE
:102F20000A0000003130BDF8D6C6B2CECAFDCFD4FB
:102F3000CABE210D0A00000052756E2054696D65ED
:102F40002043616C63756C6174696F6E204F4E0D28
:102F50000A00000052756E2054696D652043616C53
:102F600063756C6174696F6E204F46460D0A0000F0
:102F70000D0A25732800000025630000257300005A
:102F8000256C750030582558000000002C0000000A
:102F900029000000149BDFF898C10093DCF800C002
:102FA0005CF8347010A80FC8B847064650E0DDE959
:102FB0001423DFF87CC1CDE90023DCF800C05CF805
:102FC000347010A80FC8B847064641E014A90EC9CE
:102FD000DFF85CC18DE80E00DCF800C05CF83470EE
:102FE00010A80FC8B847064632E014A80FC8DFF88B
:102FF00040C18DE80F00DCF800C05CF8347010A808
:103000000FC8B847064623E015A80FC801AF0FC781
:10301000149BDFF81CC10093DCF800C05CF834702E
:1030200010A80FC8B847064612E016A80FC802AF8E
:103030000FC7DDE91423DFF8F8C0CDE90023DCF881
:1030400000C05CF8347010A80FC8B847064600BF2F
:1030500000BFFFF7E3FD9DF8180001280CD13448AC
:10306000C07D20B9314633A000F07EFB07E0314639
:1030700032A000F079FB02E02FA000F075FB2C4895
:1030800090F8EC0088B12A48D0F8F0000A21B0FB93
:10309000F1F201FB12072648D0F8F000B0FBF1F87E
:1030A0003A46414628A000F05FFB8AE670B52E48FC
:1030B000008810F4004F35D02B480088C5B200209E
:1030C0002A4948551A4881682848884704461CB947
:1030D0001749C868804722E02448FFF757FA054699
:1030E000012D00D02C46002C19D0012C06D0022C2A
:1030F00008D0032C0AD0042C10D10BE01CA000F047
:1031000033FB0BE01DA000F02FFB07E01EA000F03A
:103110002BFB03E01FA000F027FB00BF00BF002037
:103120001149088070BD014608687047016070470A
:10313000800000203D256C753B0D0A003D30582570
:10314000583B0D0A0000000046756E6374696F6E8F
:103150002052756E2054696D653A25642E253164C0
:103160006D730D0A00000000200000207401002093
:10317000BAAFCAFDB4EDCEF3210D0A00B2CECAFD3E
:10318000B4EDCEF3210D0A00B2CECAFDCCABB6E051
:10319000210D0A00CEB4D5D2B5BDC6A5C5E4B5C4CF
:1031A000BAAFCAFD210D0A0002460AE010780B787A
:1031B000984201D001207047107800B902E0521CFB
:1031C000491CF3E700BF0020F5E706E002780A702B
:1031D000027802B902E0401C491CF7E700BF7047C3
:1031E0000146002005E00A7802B903E0421CD0B293
:1031F000491CF8E700BF704710B50246012000E007
:1032000050430B00A1F10104E1B2F9D110BD2DE949
:10321000F04304460D4600274FF00A09A04600205F
:10322000286027E098F80000392803DC98F80000AF
:1032300030280DDA98F80000462803DC98F80000E2
:10324000412805DA98F8000058280AD1012F08D142
:1032500098F80000412801DB4FF01009781CC7B234
:1032600006E098F8000000B905E00120BDE8F08311
:1032700008F10108D6E700BFA046B9F1100F12D13E
:10328000032F01DA0220F1E798F80000302808D176
:1032900098F80100582804D108F10208B81EC7B2F6
:1032A00004E00320E2E70FB90420DFE721E00FB1DB
:1032B000781EC7B298F80000392808DC98F800009A
:1032C000302804DB98F80000A0F1300603E098F8FD
:1032D0000000A0F1370639464846FFF78DFF296800
:1032E00006FB0010286008F1010898F8000000B9FA
:1032F00000E0DCE700BF0020B8E710B5044600207E
:1033000010700BE020780870641C491C1078401C79
:1033100010701078984201DB012010BD2078202821
:1033200002D020780028EDD100200870F5E7014692
:10333000491C00E0491C0878202801D10029F9D156
:10334000087870472DE9FF4F86B004460D461E46AB
:103350004FF00008002005908246012004900020D4
:1033600001900090A1462AE099F80000202820D082
:10337000009800F07F0005281BDA009818B9009823
:1033800040F080000090009800F07F00042804D1F5
:1033900099F800002A2800D015E099F8000000995B
:1033A00001F07F0102AA50540098401CC0B2009066
:1033B00003E00098852800D105E009F1010999F89A
:1033C00000000028D0D100BF009888B100200099EB
:1033D00001F07F0102AA5054DFA102A8FFF7E4FE2A
:1033E00010B90020307001E0012030700020009002
:1033F0000027A14616E009F10109781CC7B299F827
:103400000000202803D099F800002A280AD1484655
:10341000FFF78DFF8346BBF1280F03D0BBF12A0FC6
:1034200000D0059799F80000282803D099F80000EB
:103430000028E0D1A146059810B10598401C8144B0
:103440000027BB4671E099F8000008B901276DE03C
:1034500099F80000282807D1BBF1000F04D108F12A
:10346000010000F0FF081FE099F8000029280FD1A3
:10347000BBF1000F0CD1B8F1000F04D0A8F101008E
:1034800000F0FF0800E00127B8F1000F0CD14DE07B
:1034900099F80000222807D1BBF1000F01D10120CB
:1034A00000E0002000F0FF0BB8F1000F08D199F800
:1034B0000000202837D099F8000028706D1C32E0F9
:1034C00099F800002C2806D1012004900098401C97
:1034D000C0B2009019E099F80000202815D099F8A2
:1034E0000000282811D0009858B90198052808DA5A
:1034F00099F8000002A9019A88540198401CC0B2B2
:1035000001900498401CC0B20490B8F1010F0AD198
:103510000498022807D10498401CC0B204900AF114
:10352000010000F0FF0A09F101098CE700BFBAF1C0
:10353000010F0AD1002002A9019A885486A102A88D
:10354000FFF732FE08B94FF0000A089880F800A093
:103550000020287038460AB0BDE8F08FF0B5034669
:10356000002000240025002655E01F782C2F01D1D3
:1035700006B901241F78292F01D01F780FB906B989
:103580004AE0002D34D11F78302F02DB1F78392F0D
:1035900011DD1F78612F02DB1F78662F0BDD1F788E
:1035A000412F02DB1F78462F05DD1F78582F02D0F0
:1035B0001F78782F0CD104B12EE01F78612F03DB28
:1035C0001F78203F0F7001E01F780F70491C1FE02B
:1035D0001F78222F04D104B11EE00125012617E037
:1035E0001F78202F14D01F782C2F11D0FF2513E027
:1035F0001F78222F00D1002604B10DE046B11F78BC
:103600005C2F02D15B1C471CF8B21F780F70491C5D
:10361000471CF8B25B1CA8E700BF00270F701570AD
:10362000F0BD01460020002205E04D4B9B5C0344A9
:10363000D8B2531CDAB28A42F7DB70472DE9F04367
:10364000B5B004460D464FF00008002604E0002106
:1036500043488155701CC6B20A2EF8DB06E0641C94
:10366000207818B9012035B0BDE8F08320782828EB
:10367000F5D1641C69E034AA69462046FFF76EFF65
:10368000064634449DF8D00020B101282CD0FF28F4
:1036900054D151E09DF8000028B333A96846FFF7E4
:1036A000B6FD06460EB10220DDE74046FFF7B9FF42
:1036B0002B490A31339A0A50A1F12400018B0120D1
:1036C00000FA08F0814326481A38018304211A3091
:1036D00000F8081008F1010000F0FF08B8F10A0F27
:1036E00001DD0320BFE729E06846FFF779FD401CB4
:1036F000C7B24046FFF795FF19490A3100EB0109AF
:1037000049466846FFF761FD15481A38018B0120CC
:1037100000FA08F0014388B211491A3908831048A9
:1037200000F8087008F1010000F0FF08B8F10A0F76
:1037300001DD032097E701E0022094E700BF207835
:10374000292801D0207800B900E094E700BF85F86F
:103750000080002087E70000766F696400000000A9
:103760009A000020704700000FB4054A054910B5C3
:1037700003AB7944029800F0EEF910BC5DF814FB3D
:103780002400002071D3FFFF70B5044685690068EE
:103790003026C10600D42026C00709D106E0D4E9AE
:1037A000012130469047206A401C20626D1EF6D5EC
:1037B00070BD70B5044685690068C00709D006E091
:1037C000D4E9012120209047206A401C20626D1E10
:1037D000F6D570BD70B505460C46012A01D1012011
:1037E0000BE02868800600D5EA69002000E0401C54
:1037F000904202D2215C0029F9D1A9692618091A40
:10380000A961296A014428462962FFF7BDFF04E047
:10381000D5E9012114F8010B9047B442F8D32846AA
:10382000FFF7C7FF70BD00002DE9F041804600267C
:1038300010687529414614A511D0AFF30080002807
:1038400002DA404211A508E0D8F800108A0701D535
:103850000FA502E0490704D50EA5012601E0AFF34C
:103860000080002408F1240704E000F09DF93031C5
:103870003955641C0028F8D133462A462146404673
:10388000BDE8F04100F00AB9000000002D00000082
:103890002B0000002000000070B504460D462146B4
:1038A0001068AFF300802168090502D5104A7A44F8
:1038B00002E00F4A7A440E32002104F1240306E0AC
:1038C00000F00F064FEA1010965D5E54491C002868
:1038D000F6D120680023000704D5702D02D009B16D
:1038E000113202232046BDE8704000F0D7B8000036
:1038F000660300002DE9F05F4FF0000B0546894696
:103900004FF0010AC0F820B02846E968884700282F
:103910007ED0252802D0D5E90121B0E05C4F0026F9
:103920007F442846E96888472028044607DB312C75
:1039300005D2381910F8200C08B10643F1E7B0079A
:1039400001D526F00406C5F81CB00027C5F818B04C
:103950002A2C10D1284659F8041B05EB87029161E7
:10396000E9688847012F044628D1E869002830DA41
:1039700026F020062DE0A4F1300052460A28014628
:103980001AD2CAB105EB870092468046816108E0F1
:10399000D8F8180000EB800004EB40003038C8F87D
:1039A00018002846E968884704465046A4F13001CB
:1039B0000A2901D20028EBD1012F0AD02E2C08D1E0
:1039C0002846E96888477F1C0446022F46F02006F7
:1039D000BEDBA869002803DA404246F00106A86170
:1039E000F00701D026F010066C2C01D0682C18D1FD
:1039F00027462846E9688847B84204460BD180200C
:103A00006C2F00D0C000E96806432846884700E0D4
:103A10003AE0044615E040206C2F00D080000643B9
:103A20000FE04C2C05D06A2C03D0742C01D07A2CDA
:103A300007D158464C2CE6D080206A2CE3D00020D9
:103A4000E1E70CB3A4F14100192802D8203446F470
:103A500000664A46214628462E604E46FCF7C2FBC9
:103A600050B1012802D106F104094DE7F61D26F0F8
:103A7000070000F1080947E7D5E9012120469047F2
:103A8000286A401C28623FE7286ABDE8F09F0000D2
:103A90001C03000070477047704770472DE9F047DE
:103AA0000D4604469246994600F1240801688806AE
:103AB00004D5E06921F01001216000E00120002719
:103AC000A84200DD471BA1697A1902EB0900081A18
:103AD000A0612068C00602D42046FFF755FE0026EC
:103AE00008E0D4E901211AF806009047206A401C3A
:103AF000761C20624E45F4DB2068C0060AD52046BD
:103B0000FFF742FE06E0D4E9012130209047206A09
:103B1000401C2062381EA7F10107F4DC07E0D4E95D
:103B2000012118F805009047206A401C2062281ED9
:103B3000A5F10105F3DC2046FFF73BFE21680220DA
:103B4000090600D40120BDE8F087000001694A1C85
:103B500002610878704710B50C46194690B0CDE95F
:103B6000024200220692044A7A44CDE9042001A8C8
:103B7000FFF7C0FE10B010BDE1FFFFFF10B54369B5
:103B800013B1AFF3008001E0FFF724FE012010BD68
:103B9000126800F124010A7000224A700122EDE748
:103BA00011684FF0FF32E9E74FF00A01B0FBF1F284
:103BB00002FB110110467047754600F029F8AE4629
:103BC00005006946534620F00700854618B020B529
:103BD000FDF738F8BDE820404FF000064FF0000731
:103BE0004FF000084FF0000B21F00701AC46ACE8A5
:103BF000C009ACE8C009ACE8C009ACE8C0098D4612
:103C000070470446AFF300802046FCF70BFB000032
:103C1000004870473C0200203031323334353637AB
:103C20003839414243444546403058003031323300
:103C30003435363738396162636465664030780000
:103C40000400000800000000000000020001000065
:103C5000103F006465630069640072756E74696D7D
:103C6000650068656C70006C697374006865780045
:103C70004453333233315F536574287531362079BC
:103C800065612C7538206D6F6E2C75382064612C41
:103C9000753820686F752C7538206D696E2C7538F5
:103CA000207365632900766F696420777269746593
:103CB0005F616464722875333220616464722C75AC
:103CC00033322076616C290075333220726561646D
:103CD0005F61646472287533322061646472290004
:103CE000766F69642064656C61795F6D73287531E6
:103CF00036206E6D732900766F69642064656C618F
:103D0000795F757328753332206E75732900000052
:103D1000303D000800000020740100006C01000824
:103D2000983D0008740100202C070000C80100081D
:103D30001184A24A040009180102030406070809B5
:103D4000292069241702040608513C1B0862041A42
:103D500067041A57041A6C041A53041A5A041327D6
:103D6000311B08C8081A2D081AA60813830A1B0855
:103D7000E0081A3F081AF70813BB081B087008224E
:103D8000581420E52C1408092D1B08B30413AD307A
:083D90001B08056B01DC0000BB
:0400000508000131BD
:00000001FF
