:020000040800F2
:10000000B0060020B50A0008B1080008B3080008CF
:1000100000000000000000000000000000000000E0
:10002000000000000000000000000000B708000809
:100030000000000000000000B9080008BB0800082C
:10004000C70A0008C70A0008C70A0008C70A00084C
:10005000C70A0008C70A0008C70A0008C70A00083C
:10006000C70A0008C70A0008C70A0008C70A00082C
:10007000C70A0008C70A0008C70A0008C70A00081C
:10008000C70A0008C70A000800000000C70A0008E5
:10009000C70A0008C70A0008C70A0008C70A0008FC
:1000A000C70A0008C70A0008C70A0008730F00083B
:1000B000C70A000800000000C70A0008000000008E
:1000C00000F002F800F046F80CA030C808382418F8
:1000D0002D18A246671EAB4654465D46AC4201D180
:1000E00000F038F87E460F3E0FCCB646012633426C
:1000F00000D0FB1AA246AB46334318475C220000EF
:100100007C220000103A02D378C878C1FAD852078E
:1001100001D330C830C101D504680C6070470000BD
:100120000023002400250026103A01D378C1FBD813
:10013000520700D330C100D50B60704710B5642959
:1001400002D101F0DFFE10BD002010BD1FB51FBDA4
:1001500010B510BD02F0CDF81146FFF7F7FF00F023
:1001600009F802F0E5F803B4FFF7F2FF03BC00F072
:10017000BDFC0000A0B000F015FF7D20C00000F025
:100180004CFFE120400200F0BEFC00BFFF20F53034
:1001900000F043FF002510E00520400368430121E3
:1001A00049054218A5A1684601F070FE684600F0B6
:1001B000CAFE00F009FD681CC5B2072DECDBA8A043
:1001C00000F0C1FE00F000FDB1A000F0BCFE00F0A8
:1001D000FBFCAFA000F0B7FE00F0F6FCB2A000F010
:1001E000B2FE00F0F1FCB6A000F0ADFE00F0ECFCB9
:1001F000B9A000F0A8FE00F0E7FCBDA000F0A3FE4F
:1002000000F0E2FCC0A000F09EFE00F0DDFCC5A006
:1002100000F099FE00F0D8FCC7A000F094FE00F0BA
:10022000D3FCCAA000F08FFE00F0CEFCCDA000F001
:100230008AFE00F0C9FCD1A000F085FE00F0C4FCED
:10024000D2A000F080FE00F0BFFCD6A000F07BFE44
:1002500000F0BAFCD9A000F076FE00F0B5FC192041
:10026000800100F0DAFE7EA000F06DFE00F0ACFC34
:1002700087A000F068FE00F0A7FC85A000F063FEF8
:1002800000F0A2FC88A000F05EFE00F09DFC8CA0B7
:1002900000F059FE00F098FC8FA000F054FE00F032
:1002A00093FC93A000F04FFE00F08EFC96A000F0AF
:1002B0004AFE00F089FCC6A000F045FE00F084FC78
:1002C000C9A000F040FE00F07FFCCFA000F03BFE94
:1002D00000F07AFCD2A000F036FE00F075FCD8A049
:1002E00000F031FE00F070FCDBA000F02CFE00F00E
:1002F0006BFC1920800100F090FEE0A000F023FECE
:1003000000F062FCE9A000F01EFE00F05DFCEFA032
:1003100000F019FE00F058FCF3A000F014FE00F00D
:1003200053FC5BA000F00FFE00F04EFC002400BF69
:1003300010E02246F3A1684601F0A8FD601CC4B29B
:10034000642000F06AFE684600F0FDFD00F03CFC11
:10035000601CC4B23C2CECDD002400BF2EE0224621
:10036000F0A1684601F092FD601CC4B2642000F068
:1003700054FE684600F0E7FD00F026FC2246F1A19D
:10038000684601F083FD601CC4B2642000F045FEA5
:10039000684600F0D8FD00F017FC2246F1A168463F
:1003A00001F074FD601CC4B2642000F036FE6846A3
:1003B00000F0C9FD00F008FC601CC4B2322CCEDD98
:1003C0001920800100F029FEEEA000F0BCFD00F035
:1003D000FBFB28242246F7A1684601F057FD68463A
:1003E00000F0B1FD00F0F0FB7D20C00000F015FE34
:1003F0007F242246F9A1684601F048FD684600F0D6
:10040000A2FD00F0E1FB7D20C00000F006FEC82444
:100410002246FCA1684601F039FD684600F093FDD4
:1004200000F0D2FB7D20C00000F0F7FD0024224642
:10043000FEA1684601F02AFD68460BE244495228B5
:1004400031293B4653494D47282532642C302C3006
:100450002C3136302C3132382C30293B0D0A00003B
:100460004449522831293B434C522830293B4443CC
:1004700031362832352C352C27C9EEDBDAC9D0CA03
:10048000D3BDE7BFC6BCBC2C34293B0D0A0000001D
:10049000504C28302C33302C3136302C33302C312A
:1004A00035293B0D0A000000504C28302C313237E2
:1004B0002C3136302C3132372C3135293B0D0A00A6
:1004C000504C28302C37352C3136302C37352C31E8
:1004D00035293B0D0A000000504C28302C33302CBD
:1004E000302C3132372C3135293B0D0A0000000009
:1004F000504C2838302C33302C38302C3132372CBB
:100500003135293B0D0A0000504C283135392C3348
:10051000302C3135392C3132372C3135293B0D0A0D
:10052000000000004349522833322C35302C31353D
:100530002C31293B0D0A0000434952462834322C05
:1005400035302C31352C32293B0D0A00424F5846AC
:100550002839302C33392C3133302C36302C332998
:100560003B0D0A00424F58283130302C33392C31A2
:1005700034302C36302C31293B0D0A0050532834AE
:10058000302C39302C32293B0D0A0000504C2831D8
:10059000352C3130352C36302C3130352C31293B4F
:1005A0000D0A0000434952283132302C3130352CAD
:1005B00031352C31293B0D0A000000005053283101
:1005C00032302C3130352C3234293B0D0A000000FA
:1005D000444331362831302C34352C2741424327CF
:1005E0002C33293B0D0A0000534243283135293B67
:1005F00044435631362834302C34352C274142437D
:10060000272C30293B0D0A00444332342838302C43
:1006100034302C27313233272C32293B0D0A00008D
:100620005342432834293B44435632342831323034
:100630002C34302C27313233272C30293B0D0A0043
:10064000444333322831302C38352C27C9EEDBDADD
:10065000272C32293B0D0A005342432831293B44C1
:10066000435633322839302C38352C27D6D0B9FAB6
:10067000272C3135293B0D0A00000000434C52283D
:1006800030293B4449522831293B4653494D47289C
:10069000323338333837322C302C302C3136302C42
:1006A0003132382C30293B0D0A00000044433234EB
:1006B0002832302C302C27323031392D30382D3241
:1006C0003020272C3135293B0D0A000044433136B8
:1006D0002832302C36352C2720D0C7C6DAB6FE2774
:1006E0002C3135293B0D0A00444331362837302C54
:1006F00033352C2720323020A3BA272C3135293B23
:100700000D0A0000534243283135293B44435631FA
:1007100036283132302C33352C272564272C3129CB
:100720003B0D0A00534243283135293B444356319F
:10073000362832302C37302C272564272C31293BA2
:100740000D0A0000534243283135293B44435631BA
:10075000362837322C37302C272564272C31293B7B
:100760000D0A0000534243283135293B444356319A
:1007700036283131352C37302C272564272C312968
:100780003B0D0A00434C522830293B444952283142
:10079000293B4653494D4728323432343833322CC2
:1007A000302C302C3136302C3132302C30293B0D6E
:1007B0000A00000044435631362834372C36302C9A
:1007C00027C1C1B6C8A3BA383020272C31293B42F3
:1007D0004C28253264293B0D0A0000004443563161
:1007E000362834372C36302C27C1C1B6C8A3BA35C9
:1007F0003020272C31293B424C28253264293B0DDF
:100800000A00000044435631362834372C36302C49
:1008100027C1C1B6C8A3BA323020272C31293B42A8
:100820004C28253264293B0D0A0000004443563110
:10083000362834372C36302C27C1C1B6C8A3BA317C
:100840003030272C31293B424C28253264293B0D7E
:100850000A00000000F077FB00F0B6F97D20C00030
:1008600000F0DBFB1920800100F0D7FB04A000F0B2
:100870006AFB00F0A9F91920800100F0CEFB85E4A5
:100880004449522831293B434C52283631293B44B4
:100890004332342833302C35302C27D1DDCABEBD4D
:1008A000E1CAF8A3A1272C3135293B0D0A0000002D
:1008B000704700BFFEE77047704770470CB50020D7
:1008C00001900090734800680121090408437149B0
:1008D000086000BF6F48006801214904084000908B
:1008E0000198401C01900098002804D105210902BC
:1008F00001988842EED16748006801214904084008
:10090000002802D00120009001E000200090009813
:10091000012839D11120604908605E4840685D496E
:100920004860084640684860084640683F2109041E
:100930008843584948600846406811210904084323
:100940005449486008460068012109060843514996
:10095000086000BF4F480068012149060840002890
:10096000F8D04C484068800880004A4948600846F2
:100970004068022108434749486000BF4548406835
:100980000C2108400828F9D10CBD10B54148006879
:10099000012108433F490860084640683F49084034
:1009A0003C494860084600683D49084039490860AC
:1009B00008460068012189048843364908600846D2
:1009C00040683F2109048843324948600846C06AAC
:1009D00000090001C8620846006BFF2154318843BA
:1009E0002C4908630846406B4008400048630020DB
:1009F0008860FFF763FF10BDF8B5002500240026CE
:100A00000027244840680C2108400546002D04D0EA
:100A1000042D06D0082D2AD107E02248224908607B
:100A200029E020482049086025E01A4840680F2145
:100A30008904084004461748406801210904084019
:100A40000646A00C841C002E04D1184860431649A9
:100A500008600BE00F48C06A0007000F471C3946CA
:100A6000104801F00CFB60430F49086003E00D489B
:100A70000D49086000BF00BF06484068F0210840EB
:100A800000090B490D5C08480068E8400649086009
:100A9000F8BD000000100240002002400CB8FFF832
:100AA000FFFFF6FE00127A000000002000093D0062
:100AB000040000200748804707480047FEE7FEE79C
:100AC000FEE7FEE7FEE7FEE704480549054A064B58
:100AD000704700008B090008C1000008B00000202A
:100AE000B0060020B0020020B002002000BF704716
:100AF00000BFFD4AD26980231A40002AF9D0FA4B80
:100B000020331881704710B58AB00446012148048B
:100B100000F027FE0121880300F031FE01220921A7
:100B2000C80600F074FB01220A210920C00600F06B
:100B30006EFB032040020890022108A801710321E6
:100B40004171002181710121C17108A90920C006EC
:100B500000F0D4FA029400200390049005900790CE
:100B60000C20069002A9E04800F0F0FE0122DF49C7
:100B7000DD4801F019F90121DB4800F080FF1B215D
:100B800068460171022141710121817101A800F0C3
:100B900067FE04200890032108A84171002181719B
:100BA00008A90920C00600F0A9FA0AB010BD00BFCC
:100BB000CD48C069202108400028F9D0CA4820301B
:100BC0000089C005C00D704704E0C94800780F28AF
:100BD00000D100E0F9E700BF0020C5490870704768
:100BE00000BFC44909785629FBD1C2494978412937
:100BF000F7D1C04989785229F3D10021BD4A11703B
:100C0000517091701146C97801701146097941708F
:100C100011464979817011468979C1700021B64A1F
:100C20001170B64A117000BF00BF70477B2809D110
:100C30000021B34A11700121B24A11700021B24A59
:100C400011704FE07D2806D10021AE4A11700121BC
:100C5000AE4A117046E03A2801D02C2808D1AA49A2
:100C60000978491CA84A11700021A54A117039E081
:100C7000A4490978012912D1A1490978032908DA80
:100C8000A14909784A008918A14A89189C4A127812
:100C900088549B490978491C994A117022E04F28D1
:100CA00003D10121924A11701CE04B2807D19049D1
:100CB00009780D221140891C8D4A117012E00D280F
:100CC00007D18B4909780B221140091D884A117000
:100CD00008E00A2806D1864909784907490F0831F2
:100CE000834A1170704710B52AE1884800780128BE
:100CF000FAD1874800785628F6D1854840784128AF
:100D0000F2D1834880785228EED18148407930284A
:100D100015DB7F484079392811DC7D48C0783038B0
:100D2000642343437A48007930380A2460431B180F
:100D30007748407930381818764B187020E074489E
:100D4000007930280FDB7248007939280BDC7048B5
:100D5000C07830380A2358436D4B1B79303BC0189C
:100D60006C4B18700CE06A48C078302808DB684883
:100D7000C078392804DC6648C0783038654B187074
:100D80006348007A302815DB6148007A392811DC85
:100D90005F4880793038642343435D48C0793038F8
:100DA0000A2460431B185A48007A30381818594BE7
:100DB000587020E05648C07930280FDB5448C0797D
:100DC00039280BDC5248807930380A235843504B7D
:100DD000DB79303BC0184F4B58700CE04C488079A1
:100DE000302808DB4A488079392804DC4848807973
:100DF0003038484B58704648C07A302815DB444894
:100E0000C07A392811DC4248407A303864234343A1
:100E10003F48807A30380A2460431B183C48C07A27
:100E2000303818183B4B987020E03948807A3028C9
:100E30000FDB3748807A39280BDC3548407A303868
:100E40000A235843324B9B7A303BC018314B987081
:100E50000CE02F48407A302808DB2D48407A3928AA
:100E600004DC2B48407A30382A4B98702848807B25
:100E7000302815DB2648807B392811DC2448007B8C
:100E80003038642343432248407B30380A2460438F
:100E90001B181F48807B303818181E4BD87020E074
:100EA0001B48407B30280FDB1948407B39280BDC7E
:100EB0001748007B30380A235843154B5B7B303B87
:100EC000C018144BD8700CE01148007B302808DBA8
:100ED0000F48007B392804DC0D48007B30380D4B6F
:100EE000D870002126E0000000380140050105000F
:100EF0001C000020210000202500002026000020EA
:100F0000180000201A000020190000201B000020FB
:100F10003C0000201D000020002207E000204B00C4
:100F2000CB181C4C1B199854501CC2B2032AF5DB79
:100F3000481CC1B20529EFDB0020174B187000E0F8
:100F4000D3E600BF10BD70B50446002510E0207840
:100F500000280CD02178114800F048FE00BF802105
:100F60000E4800F055FF0028F9D0641C00E070BD69
:100F7000EDE710B501240A49084800F055FF0028A4
:100F800006D0064800F036FEC4B22046FFF74EFEFB
:100F900010BD00003C0000201B0000200038014074
:100FA0000501050010B50420C04300F09CFC2D494C
:100FB0002D48006801F063F840B22C490870002009
:100FC00008567D21C900484300B22949088010BD58
:100FD0000146264A0023D3560A465A43254B5A61F6
:100FE00000229A611A46126901231A43214B1A61A1
:100FF00000BF204A1069C207D20F002A04D0012284
:1010000012040240002AF4D01A4A1269520852000F
:10101000184B1A6100229A6170470146144A002356
:10102000D35E0A465A43134B5A6100229A611A460C
:10103000126901231A430F4B1A6100BF0D4A106950
:10104000C207D20F002A04D0012212040240002A53
:10105000F4D0084A126952085200064B1A61002265
:101060009A61704700127A000000002028000020DA
:101070002A00002000E000E010B504460920C00668
:10108000844209D10121480400F095FB0021012090
:10109000400400F090FB30E06E48844208D101210A
:1010A000000200F088FB0021200200F084FB24E015
:1010B0006948844208D10121000200F07CFB002134
:1010C000200200F078FB18E06448844209D1012135
:1010D000080500F070FB00210120000500F06BFB0B
:1010E0000BE05F48844208D10121880500F063FBD2
:1010F00000210120800500F05EFB10BDF0B50A461E
:1011000000210023002400BF3DE001258D402B4637
:1011100015681D402C469C4234D11579012D02D012
:101120001579022D16D185684F000326BE40B543C0
:10113000856055794E00B540866835438560858861
:1011400001268E40B5438580858896798E40B6B25B
:101150003543858005684F000326BE40B5430560D2
:1011600015794E00B540066835430560C5684F00E7
:101170000326BE40B543C560D5794E00B540C6686C
:101180003543C560491C1029BFD3F0BD3549016006
:10119000002101710221417100218171C1717047EB
:1011A00008B5012212040092009A0A430092009AA4
:1011B000C261C161009AC261C2690092C2690092B3
:1011C00008BD02460020138A0B40002B01D00120ED
:1011D00000E0002070470146088A70470246002060
:1011E000938A0B40002B01D0012000E000207047C3
:1011F0000146888A70478161704701857047002ADF
:1012000001D0816100E00185704781827047F0B5AF
:10121000002300244D07EE0E1546B5402B46CD1099
:10122000AE0005462035AD594E07F70E0F26BE40DD
:10123000B543CE10B60007462037BD51CD10AE00E5
:101240003D46AD591D432C46CD10AD003E46745170
:10125000F0BD00000004004800080048000C0048F1
:1012600000140048FFFF0000FD480068012108430A
:10127000FB49086008464068FA490840F849486058
:1012800008460068F8490840F549086008460068C3
:10129000012189048843F2490860084640683F21DB
:1012A00009048843EE4948600846C06A0009000105
:1012B000C8620846006BFF2154318843E84908633F
:1012C0000846406B40084000486300208860704733
:1012D0000021E34A917011468870704710B50246AC
:1012E0000021002300205111002902D1DC4C236889
:1012F0000BE0012902D1DA4C236A06E0022902D16F
:10130000D74C636A01E0D64C636BD106C90E012449
:101310008C401C40002C01D0012000E0002010BDBA
:1013200038B5002000900024002500BF1120FFF7F1
:10133000D5FF05460098401C009005210902009841
:10134000884201D0002DF1D01120FFF7C7FF0028FF
:1013500001D0012400E00024204638BD01460020D1
:10136000BF4A1068F82302469A431046CA00104349
:10137000BB4A10607047002806D0B94909680122AD
:101380001143B74A116005E0B549096849084900A9
:10139000B34A1160704701460020B14A506BF823F0
:1013A00002469A431046CA001043AD4A5063704744
:1013B000002806D0AA49496B01221143A84A51636B
:1013C00005E0A749496B49084900A54A51637047A0
:1013D000002806D0A249496B04229143A04A5163D8
:1013E00005E09F49496B042211439D4A51637047B0
:1013F0009B49096A49084900994A11621146096ADC
:1014000004229143964A11621146096A014311620E
:1014100070479349096A18229143914A1162114613
:10142000096A014311627047002806D08C49496A55
:10143000012211438A4A516205E08949496A4908F3
:101440004900874A51627047854A52683D231B0410
:101450009A43834B5A601A46526803460B431A4319
:101460007F4B5A607047002807D07D4909680122E8
:10147000120611437A4A116006E07949096801228F
:1014800012069143764A1160704701460020744A63
:10149000D06A0009000102460A431046704AD06231
:1014A0007047002807D06E4909680122D204114311
:1014B0006B4A116006E06A4909680122D20491432F
:1014C000674A116070476649C8717047014600203D
:1014D000634A50688008800002460A431046604A0A
:1014E000506070475E4840680C21084070470146D4
:1014F00000205B4A5068F02302469A431046024699
:101500000A431046564A5060704701460020544A2C
:10151000506807231B0202469A43104602460A43BC
:1015200010464F4A506070474D4949680122920366
:1015300091434B4A51601146496882B21143484A6F
:1015400051601146096B92159143454A116311464A
:10155000096B020C1143424A116370474049096B01
:10156000402291433E4A11631146096B01431163C6
:1015700070473B49096B10229143394A1163114668
:10158000096B0143116370473549096B890889006C
:10159000334A11631146096B014311637047FEB56D
:1015A00004460025002600200190009000272C48CA
:1015B00040680C2108400546002D04D0042D05D0BC
:1015C000082D28D105E02948206027E02748206021
:1015D00024E0234840680F2189040840064620483B
:1015E00040680121090408400190B00C861C019854
:1015F000002803D11E48704320600BE01848C06AE1
:101600000007000F401C00901848009900F037FDBB
:101610007043206002E01548206000BF00BF104802
:101620004068F021084005462D091248475D2068B2
:10163000F84060600A4840680721090208400546F2
:101640002D0A0C48475D6068F840A0600448006BB4
:10165000FF2101310840884210D00748E0601BE0BC
:10166000001002400CB8FFF8FFFFF6FE00127A00EF
:1016700000093D002C000020809FD500754840687F
:10168000012189030840884203D0A0684008E06037
:1016900002E0A0688008E0606E48006B40210840CE
:1016A000402802D06C48206102E00120C003206184
:1016B0006848006B10210840102802D0674860611C
:1016C00001E0206860616348006B8007800F00289C
:1016D00002D1A068A06119E05E48006B8007800F0E
:1016E000012802D12068A06110E05A48006B8007F1
:1016F000800F022802D18003A06107E05548006BEB
:101700008007800F032801D15448A061FEBD5149D4
:10171000096A01434F4A11627047002807D04D49BA
:10172000096A0122D20311434A4A116206E049497B
:10173000096A0122D2039143464A11627047002888
:1017400007D04449096A012212041143414A116237
:1017500006E04049096A0122120491433D4A1162A0
:101760007047002905D03B4A52690243394B5A6100
:1017700004E0384A52698243364B5A617047002967
:1017800005D0344A92690243324B9A6104E0314AEF
:10179000926982432F4B9A617047002905D02D4AE8
:1017A000D26902432B4BDA6104E02A4AD2698243B0
:1017B000284BDA617047002905D0264A926A024315
:1017C000244B9A6204E0234A926A8243214B9A6234
:1017D0007047002905D01F4AD26802431D4BDA60CA
:1017E00004E01C4AD26882431A4BDA607047002931
:1017F00005D0184A12690243164B1A6104E0154AD3
:1018000012698243134B1A617047002905D0114AAF
:10181000527A02430F4B5A7204E00E4A527A8243C4
:101820000C4B5A7270470B48406A01210906084365
:1018300008494862704701460020064A92680A40FB
:10184000002A01D0012000E0002070470149887281
:1018500070470000001002401280000000127A0061
:1018600000218278002A27D0274A03231B02D2189E
:1018700003789B109B00D15802789207D30EFF2269
:101880009A400B469343194642789207120E03780A
:101890009B07DB0E9A4011431B4A03231B02D218FD
:1018A00003789B109B00D1500278D306DB0E0122F7
:1018B0009A40154B1A6007E00278D306DB0E01222E
:1018C0009A40114B80331A607047002905D00F4AA7
:1018D000126902430D4B1A6104E00C4A12698243FB
:1018E0000A4B1A617047042806D109490969042284
:1018F0001143074A116105E0054909690422914332
:10190000034A11617047000000E100E000ED00E0D3
:1019100000E000E010B50446F748844209D10121F7
:101920008803FFF756FF002101208003FFF751FFD6
:101930000BE0F248844208D101214804FFF757FF29
:10194000002101204004FFF752FF10BDF0B589B01F
:1019500005460E4600240020089000BF00BF2868FE
:101960004008400028606C68032109032046884332
:101970000446B06804436C602C68E1480440F16898
:10198000706808433169084304432C60AC68032144
:10199000090220468843044670690443AC606846E7
:1019A000FFF7FDFDD448854202D10698089001E07A
:1019B0000298089028680121C9030840002809D02E
:1019C000326851001923089A5A43104600F057FB19
:1019D000074608E0326891001923089A5A431046D6
:1019E00000F04DFB07466421384600F048FB040137
:1019F000200964214843381A079028680121C90347
:101A0000084000280AD00799C900084632306421EE
:101A100000F035FB4007400F044309E00799090136
:101A200008463230642100F02AFB0007000F04430F
:101A3000AC8109B0F0BD4B21C901016000214160BA
:101A40008160C1600C21016100214161704710B5C6
:101A5000002242680F2424021346A3431A464C680E
:101A60000B6823438C682343CC6823431A434260AA
:101A700010BD0021016041608160C1607047002994
:101A800004D0026801231A43026003E0026852088E
:101A9000520002607047002A03D003680B430360C2
:101AA00002E003688B4303607047002905D0026899
:101AB0000123DB031A43026004E002680123DB0315
:101AC0009A4302607047002905D082680123DB0237
:101AD0001A43826004E082680123DB029A43826039
:101AE0007047002905D042680123DB041A43426095
:101AF00004E042680123DB049A43426070470029F6
:101B000005D0426801239B041A43426004E0426806
:101B100001239B049A4342607047002A03D0436824
:101B20000B43436002E043688B43436070470029E6
:101B300005D042680123DB031A43426004E0426897
:101B40000123DB039A4342607047002905D04268B5
:101B50000123DB051A43426004E042680123DB05F0
:101B60009A43426070474269120E1206426142690E
:101B70000A4342617047028AFF231B021A40028215
:101B8000028A0A4302827047002904D002680223B5
:101B90001A43026003E0026802239A43026070471E
:101BA000826803231B059A43826082680A4382602D
:101BB0007047002905D0426801231B051A43426083
:101BC00004E0426801231B059A4342607047426863
:101BD00003235B059A43426042680A4342607047B0
:101BE000C1690122D2039143C1617047CA05D20D78
:101BF000028570470146888CC005C00D7047426859
:101C00001202120A426042680B061A434260704791
:101C1000002905D0026801235B031A43026004E037
:101C2000026801235B039A43026070470268012344
:101C3000DB029A43026002680A430260704742680E
:101C400010239A43426042680A43426070474268E8
:101C500020239A43426042680A4342607047002949
:101C600005D0426801239B031A43426004E04268A6
:101C700001239B039A4342607047002904D0826885
:101C800008231A43826003E0826808239A43826033
:101C90007047028AD2B20282028A0B021A4302827F
:101CA0007047002904D0826820231A43826003E031
:101CB000826820239A4382607047002904D082689A
:101CC00010231A43826003E0826810239A438260E3
:101CD0007047826807235B049A43826082684B04E2
:101CE0001A438260704742691202120A42614269D5
:101CF0000B061A434261704700380140004400401F
:101D0000F3E9FFFF826804239A43826082680A43F2
:101D100082607047002904D0826802231A438260DF
:101D200003E0826802239A4382607047002905D04D
:101D3000826801239B031A43826004E082680123C6
:101D40009B039A438260704782680123DB039A43B6
:101D5000826082680A438260704702681F235B05C5
:101D60009A43026002684B051A430260704702689A
:101D70001F231B049A43026002680B041A4302608B
:101D80007047002A03D083680B43836002E08368B6
:101D90008B4383607047826801235B039A438260B0
:101DA00082680A4382607047F8B503460024002623
:101DB00000960025002018460E04340ECEB2009680
:101DC0000127009EB7403D46022C01D1001D02E0D4
:101DD000032C00D10830002A03D006682E43066089
:101DE00002E00668AE430660F8BD002A03D0038B0C
:101DF0000B43038302E0038B8B43038370478268AA
:101E000001231B039A43826082680A438260704701
:101E100002460020D3690B40002B01D0012000E0D6
:101E2000002070470162704770B502460B460024DF
:101E30000021002500201E04350ED9B201268E4057
:101E40003146012D02D11668314006E0022D02D143
:101E50005668314001E0966831401C0C0126A640CE
:101E60003446D6693440002903D0002C01D001202B
:101E700000E0002070BD10B5002300220B0C0124EF
:101E80009C402246026210BD704700000FB41CB592
:101E9000074B06AA7B4469460090059800F0FDF9BF
:101EA0000020694600F00CFA1CBC08BC04B01847BE
:101EB0002904000070B5044685690068C10601D593
:101EC000302600E02026C00707D070BD626830468B
:101ED000A1689047206A401C20626D1EF6D570BD37
:101EE00070B5044685690078C00707D170BD626887
:101EF000A16820209047206A401C20626D1EF6D504
:101F000070BD0000F7B5002575291068009914A66A
:101F100011D0C046C046002802DA404211A608E0AF
:101F2000009909688A0701D50FA602E0490704D580
:101F30000EA6012501E0C046C046009F00242437BC
:101F400004E000F0C2F930313955641C0028F8D1A2
:101F50002B4632462146009800F042F9FEBD0000B3
:101F6000000000002D0000002B00000020000000F9
:101F7000F3B50446002081B020622046E16888471E
:101F800000287AD0252802D06268A16871E0E16853
:101F900020460025884706460020E0610746A061EC
:101FA0002A2E0AD0304600F0CFF9002827D0B800FA
:101FB0000019303E0090866119E00298BA001219AB
:101FC00002C8916102902046E1688847012F0646C9
:101FD00017D1E06900281FDA202085431CE0009813
:101FE0000A21806948430099801930388861204669
:101FF000E1688847064600F0A7F90028EFD1012FD5
:102000000AD02E2E08D12046E168884706462020B7
:1020100005437F1C022FC3DBA069002803DA40427E
:10202000A06101200543E80701D010208543002E60
:1020300023D030464138192803D80120C002054377
:102040002036204625603146029A1546FEF776F87E
:1020500000280BD0012806D0ED1DE808C00008308C
:1020600002908AE709E02D1D029586E762683046F6
:10207000A1689047206A401C7EE7206AFEBD0022CE
:1020800003098B422CD3030A8B4211D300239C46B5
:102090004EE003460B433CD4002243088B4231D32D
:1020A00003098B421CD3030A8B4201D394463FE0C1
:1020B000C3098B4201D3CB01C01A524183098B4221
:1020C00001D38B01C01A524143098B4201D34B010A
:1020D000C01A524103098B4201D30B01C01A52416D
:1020E000C3088B4201D3CB00C01A524183088B42F4
:1020F00001D38B00C01A524143088B4201D34B00DD
:10210000C01A5241411A00D201465241104670474E
:102110005DE0CA0F00D04942031000D34042534053
:1021200000229C4603098B422DD3030A8B4212D313
:10213000FC22890112BA030A8B420CD38901921145
:102140008B4208D3890192118B4204D389013AD082
:10215000921100E08909C3098B4201D3CB01C01A57
:10216000524183098B4201D38B01C01A524143096A
:102170008B4201D34B01C01A524103098B4201D358
:102180000B01C01A5241C3088B4201D3CB00C01AC5
:10219000524183088B4201D38B00C01A5241D9D2DD
:1021A00043088B4201D34B00C01A5241411A00D25E
:1021B0000146634652415B10104601D34042002B5A
:1021C00000D54942704763465B1000D3404201B5D9
:1021D0000020C046C04602BD704770477047704738
:1021E000FFB504460D4681B0243000902168880672
:1021F00004D51022E0699143216000E00120A8424B
:1022000001DD471B00E000270498A1697A19101826
:10221000081AA0612078C00602D42046FFF74AFEC3
:10222000002608E003986268A168805D9047206AF4
:10223000401C761C206204988642F3DB2078C0069E
:102240000AD52046FFF736FE06E06268A168302016
:102250009047206A401C206238467F1E0028F4DC2C
:1022600007E000986268A168405D9047206A401CC2
:10227000206228466D1E0028F3DC2046FFF730FE62
:102280002078000602D5022005B0F0BD0120FBE752
:1022900001694A1C02610878704700B58FB002914D
:1022A0000021059105490193794403911146049059
:1022B0006846FFF75DFE0FB000BD0000E5FFFFFFC1
:1022C0000A681070521C0A60704701468008081A9C
:1022D00002091018020A1018020C1018C008820017
:1022E00012185200891A01E0401C0A390A29FBD24F
:1022F0007047754600F024F8AE460500694653461F
:10230000C008C000854618B020B5FEF7DDFB60BCF4
:1023100000274908B6460026C0C5C0C5C0C5C0C50F
:10232000C0C5C0C5C0C5C0C5403D49008D46704749
:1023300010B50446C046C0462046FDF714FF10BD48
:10234000004870474C00002030380A2801D2012094
:10235000704700207047000078230008000000202C
:102360003C00000004010008B42300083C000020E9
:102370007406000020010008006CDC020000000070
:102380000000000001020304060708090000000025
:10239000000000000000000000000000000000003D
:1023A0000000000000000000010203040102030419
:0423B000060708090B
:0400000508000AB530
:00000001FF
